:020000040800F2
:10000000F8AB002071020008B51900087517000848
:10001000B11900086B0800089123000800000000D7
:10002000000000000000000000000000B101000816
:100030006F080008000000000D020008B11F000852
:100040008B0200088B0200088B0200088B0200085C
:100050008B0200088B0200088B0200088B0200084C
:100060008B0200088B0200088B0200088B0200083C
:100070008B0200088B0200088B0200088B0200082C
:100080008B0200088B0200088B02000800000000B1
:100090000000000000000000000000008B020008CB
:1000A0008B0200088B0200088B0200088B020008FC
:1000B000912000088B0200088B0200088B020008C8
:1000C0008B0200088B0200088B0200088B020008DC
:1000D0008B0200088B0200088B0200080000000061
:1000E0008B0200088B0200088B0200080000000051
:1000F0000000000000000000000000008B0200086B
:10010000000000008B0200088B0200088B02000830
:1001100000000000000000000000000000000000DF
:100120008B0200088B0200088B0200088B0200087B
:100130008B0200080000000000000000000000002A
:100140000000000000000000000000008B0200081A
:100150008B0200088B0200088B0200088B0200084B
:100160008B0200088B020008000000000000000065
:10017000000000000000000000000000000000007F
:10018000000000008B0200080000000000000000DA
:100190008B0200088B020008DFF810D000F0E4FAB0
:1001A000004800475D400008AFF30080F8AB002036
:1001B0002C4B19680868B0E8F04F80F30988BFF34A
:1001C0006F8F4FF0000080F311887047000000002F
:1001D00008480068006880F308884FF0000080F34A
:1001E000148862B661B6BFF34F8FBFF36F8F00DF25
:1001F00000BF00BF08ED00E0DFF80C00016841F42B
:1002000070010160704700BF88ED00E0EFF30980E6
:10021000BFF36F8F134B1A681EF0100F08BF20ED4D
:10022000108A20E9F04F106009B44FF0500080F3BD
:100230001188BFF34F8FBFF36F8F05F01FFB4FF097
:10024000000080F3118809BC19680868B0E8F04F15
:100250001EF0100F08BFB0EC108A80F30988BFF3BE
:100260006F8F704718000020EFF305807047000083
:100270000648804706480047FEE7FEE7FEE7FEE740
:10028000FEE7FEE7FEE7FEE7FEE7FEE77D2000086B
:10029000990100082DE9F05F0546002092469B4633
:1002A00088460646814640241BE02846414647468C
:1002B000224600F091F853465A46C01A914110D395
:1002C00011461846224600F078F82D1A67EB01080F
:1002D0004F4622460120002100F06FF817EB00097D
:1002E0004E41201EA4F10104DFDC484631462A4677
:1002F0004346BDE8F09F40EA01039B0703D009E0B5
:1003000008C9121F08C0042AFAD203E011F8013B01
:1003100000F8013B521EF9D27047D2B201E000F85A
:10032000012B491EFBD270470022F6E710B5134699
:100330000A4604461946FFF7F0FF204610BD30B5C7
:1003400005462A460B4612F8010B13F8014B08B17B
:10035000A042F8D01CB1002802D06D1CF1E728465D
:1003600030BD421C10F8011B0029FBD1801A7047D8
:1003700030B505460020034600E05B1C934205D2E1
:10038000EC5CC85C201A01D1002CF6D130BD30B530
:100390000B46014600202022012409E021FA02F543
:1003A0009D4205D303FA02F5491B04FA02F52844DD
:1003B000151EA2F10102F1DC30BD202A04DB203A37
:1003C00000FA02F1002070479140C2F1200320FAA8
:1003D00003F3194390407047202A04DB203A21FAA6
:1003E00002F00021704721FA02F3D040C2F120024E
:1003F00091400843194670472DE9FE4F804681EA37
:100400000300C00F0C46009021F0004123F000458E
:10041000B8EB0200A94105D24046214690461C4651
:100420000B46024623F00040104347D0270DC7F388
:100430000A00C3F30A510290401A019040286BDA77
:10044000C3F3130040F4801B0098924620B10023B0
:10045000D2EB030A63EB0B0B01985946C0F1400243
:100460005046FFF7AAFF06460D4650465946019AE8
:1004700000F08CF910EB08006141002487EA11526A
:1004800084EAE7731A4340D0009A62B3019A012AC2
:100490004FEA075215DC001B61EB02014FF00042EE
:1004A00002EA0752CDE90042001C41F580113246B4
:1004B0002B4600F08CF903B0BDE8F08F4046214692
:1004C000F9E7001B61EB0201001C41F580130018E5
:1004D0005B412018A2F5001747EB030140EAD570F5
:1004E000B6196D4111E06D084FEA360645EAC07550
:1004F0004FEA0752001B61EB0201001C41F580111D
:1005000049084FEA30000019514132462B4603B0EA
:10051000BDE8F04F00F04CB90098012240000023E4
:10052000D0EB020263EBE073009821464FEAE074DF
:10053000B8EB000061EB0401E9E783F000435BE7FF
:1005400081F0004158E72DE9FE4F81EA030404F0F1
:10055000004421F0004100944FF0000B23F00043D1
:1005600050EA01045ED052EA03045BD0C3F30A549C
:10057000C1F30A552C44A4F2F3340194A0FB0254B5
:10058000C1F3130141F48011C3F3130343F4801347
:1005900001FB024400FB034E840A970A44EA81549B
:1005A00047EA8357A4FB076802958D0A05FB078578
:1005B0004FEA932C04FB0C542705029D4FEA065882
:1005C00047EA1637B5EB08056EEB070C870E920E5F
:1005D00047EA811742EA8312A7FB0201B6EB0B013F
:1005E00064EB00042B0D43EA0C335E1844EB1C5003
:1005F000DA465146E7FB0201C5F313044FEA0B3319
:1006000043EA14534FEA0432019C43EA0603A4F17F
:100610000C040294009CCDE900B400F0D8F803B0BB
:10062000BDE8F08F00200146F9E72DE9F04D81EAA1
:10063000030404F0004B21F0004514464FF0000A7B
:1006400023F0004150EA050220D054EA01021DD0F7
:10065000C5F30A570246C5F31303C1F31300C1F3F0
:100660000A5640F4801543F48013A7EB0608101BCC
:10067000D64608F2FD3873EB050002D308F10108F5
:1006800001E092185B41B8F1000F03DA0020014647
:10069000BDE8F08D00204FF48011064684460EE040
:1006A000171B73EB050705D3121B63EB050306430A
:1006B0004CEA010C49084FEA300092185B4150EABD
:1006C0000107EDD152EA030012D082EA040083EA66
:1006D0000501084305D0101BAB4106D201220023BF
:1006E00006E000224FF0004302E06FF001025310D9
:1006F0001AEB06004CEB085110EB0A0041EB0B0122
:10070000BDE8F04D00F054B8C1F30A52C1F3130133
:1007100040F2FF3341F480119A4202DA0020014690
:10072000704740F233439A42A2F2334202DC524213
:10073000FFF752BEFFF741BE30B5041E71F1000451
:1007400004DB4FF00044404264EB0101141E73F1DE
:10075000000405DB1C464FF00043524263EB0403E8
:10076000994208BF904230BD064C074D06E0E06854
:1007700040F0010394E8070098471034AC42F6D3E8
:10078000FFF70EFD886E0008A86E0008202A06DB21
:10079000CB17203A41FA02F043EAE07306E041FA4F
:1007A00002F3D040C2F1200291400843194670473D
:1007B00010B5141E73F1000408DA401C41F1000169
:1007C00092185B411A4301D120F0010010BD2DE9C0
:1007D000F04D92469B4611B1B1FA81F202E0B0FAB7
:1007E00080F220329046FFF7E8FD04460F4640EACB
:1007F0000A0041EA0B0153465A46084313D01146FA
:1008000053EA010019D0C8F140025046FFF7E4FD59
:1008100005460E46504659464246FFF7CEFD084370
:1008200005D0012004E020463946BDE8F08D0020C7
:10083000054346EAE0762C4337430A986305E40A09
:10084000A0EB08000022FD0A44EA47540A3002D512
:1008500000200146E9E7010510196941DDE9084575
:1008600000196941BDE8F04DA2E700BFFEE77047FF
:1008700072B600BFFEE70000F8B502460B46002541
:10088000002400200021C7E0012606FA01F51E68B9
:1008900006EA0504AC4274D11E7906F00306012E67
:1008A00004D01E7906F00306022E13D190684F0083
:1008B0000326BE40B0434F00DE68BE403043906028
:1008C000506801268E40B0431E79C6F300168E4054
:1008D000304350601E7906F00306032E09D0D0681D
:1008E0004F000326BE40B0434F009E68BE403043D9
:1008F000D0601E7906F00306022E13D1CF0802F154
:10090000200656F827004E07F70E0F26BE40B043CC
:100910004F07FF0E1E69BE403043CF0802F120068C
:1009200046F8270010684F000326BE40B0431E79EA
:1009300006F003064F00BE40304310605E6806F4C8
:100940004036002E67D000BF00260096344E366831
:1009500046F48046324F3E603E46366806F4804696
:10096000009600BF00BF2F4E8F0856F827008E0755
:10097000370F0F26BE40B0432B4EB24202D10026A5
:1009800015E048E0294EB24201D101260FE0284E81
:10099000B24201D102260AE0264EB24201D103261C
:1009A00005E0254EB24201D1042600E007268F075C
:1009B0003F0FBE4030431B4E8F0846F827001F4EA6
:1009C0003068A0435E6806F4801606B120431B4ED3
:1009D0003060361D3068A0435E6806F4001606B12C
:1009E0002043164E361D3060144E361F3068A0432B
:1009F0005E6806F4003606B12043104E361F3060A4
:100A0000361F3068A0435E6806F4803606B1204386
:100A10000A4E083E3060491C1029FFF435AFF8BD7E
:100A200044380240083801400000024000040240FF
:100A300000080240000C024000100240083C014047
:100A40000148006870470000080000200348006863
:100A500003490978084401490860704708000020EC
:100A60001000002010B50D48006840F400700B49DC
:100A700008600846006840F4806008600846006826
:100A800040F480700860032000F0DCF80F2000F0D4
:100A900007F800F05FF8002010BD0000003C0240A5
:100AA0002DE9F04188B004460027B84600BF002079
:100AB00001902448006840F001002249086008467F
:100AC000006800F00100019000BF00BF02A903A868
:100AD00000F08EF9069F1FB900F0B2F9054602E05A
:100AE00000F0AEF945001848B5FBF0F0A0F10108A0
:100AF0004FF080401549086040F2E7311348C1606B
:100B0000C0F80480002101618160816100F060FC17
:100B1000064696B90D4800F08FFC06466EB91C20BB
:100B200000F042F8102C07D2002221461C2000F0D1
:100B30004BF80748046000E00126304608B0BDE8E5
:100B4000F08100004038024040420F001C010020AC
:100B50000C00002008B500BF00200090114800687C
:100B600040F480400F4908600846006800F4804067
:100B7000009000BF00BF00BF00200090081F006869
:100B800040F08050091F08600846006800F080505F
:100B9000009000BF00BF00220F21901E00F014F84B
:100BA00008BD00004438024001460846002809DB21
:100BB00000F01F0301229A4043099B0003F1E02348
:100BC000C3F8002100BF70472DE9F05F80460D4655
:100BD0001646002701F0CEFD074639462A46334621
:100BE00001F00700C0F1070ABAF1040F02D94FF073
:100BF000040A01E0C0F1070AD14600F1040ABAF183
:100C0000070F02D24FF0000A01E0A0F1030AD44618
:100C10004FF0010A0AFA09FAAAF1010A0AEA020ADD
:100C20000AFA0CFA4FF0010B0BFA0CFBABF1010BBB
:100C30000BEA030B4AEA0B042146404601F0A2FDF1
:100C4000BDE8F09F00BF00F00702064B19684FF6A1
:100C5000FF031940044B0B4343EA0221014B196087
:100C600000BF70470CED00E00000FA0570B50446C7
:100C70000D460CB9012070BD5848006800F007000F
:100C8000A84209D255490D700846006800F00700D7
:100C9000A84201D00120EEE7207800F002000228EF
:100CA0001DD1207800F00400042805D14C480068CC
:100CB00040F4E0504A490860207800F00800082815
:100CC00005D14748006840F4604045490860444801
:100CD000006820F0F000A1680843414908602078CE
:100CE00000F00100A8B36068012807D13C4808382B
:100CF0000068C0F34040B8B90120BCE76068022832
:100D000002D06068032807D1354808380068C0F36E
:100D1000406048B90120AEE7314808380068C0F3A8
:100D2000400008B90120A6E72D48006820F0030024
:100D3000616808432A490860FFF782FE064609E019
:100D4000FFF77EFE801B41F28831884202D90320E2
:100D500091E707E02248006800F00C006168B0EB02
:100D6000810FEDD11D48006800F00700A84209D9A5
:100D70001A490D700846006800F00700A84201D02B
:100D8000012078E7207800F00400042807D11448F7
:100D9000006820F4E050E1680843114908602078B9
:100DA00000F00800082808D10D48006820F46040D1
:100DB000216940EAC1000A49086000F061F8084969
:100DC0000968C1F30311074A515CC840064908602D
:100DD00006480068FFF764FE00204CE7003C024034
:100DE00008380240F46C0008140000200C000020B9
:100DF0000F2202600D4A126802F0030242600B4AA1
:100E0000126802F0F0028260084A126802F4E052AE
:100E1000C260064A126802F46042D2080261044AC3
:100E2000126802F007020A607047000008380240AA
:100E3000003C024001480068704700001400002098
:100E400000B5FFF7F7FF04490968C1F38221034A9F
:100E5000515CC84000BD000008380240046D000825
:100E600000B5FFF7E7FF04490968C1F34231034ABF
:100E7000515CC84000BD000008380240046D000805
:100E80002DE9F047002400250026A14625480068EA
:100E900000F00C0020B1042805D008283AD105E064
:100EA000DFF8849039E0DFF8849036E01D48001FB9
:100EB000006800F03F041B48001F006800F4800039
:100EC00078B11A481749091F0968C1F38811A0FBB6
:100ED00001700146224600233846FFF7DBF905463C
:100EE0000EE011480F49091F0968C1F38811A0FBE2
:100EF00001700146224600233846FFF7CBF905462C
:100F00000848001F0068C0F30140401C4600B5FBC4
:100F1000F6F902E0DFF8109000BF00BF4846BDE8D8
:100F2000F0870000083802400024F40040787D017A
:100F3000F8B504460CB90120F8BD207800F0010096
:100F4000002874D0F948006800F00C0004280DD087
:100F5000F648006800F00C00082813D1F348001F81
:100F6000006800F48000B0F5800F0BD1EF4808381E
:100F70000068C0F34040002859D06068002856D16E
:100F80000120D9E700BF6068B0F5803F08D1E7488D
:100F90000838006840F48030E449083908601EE0F1
:100FA0006068B0F5A02F0DD1E0480838006840F423
:100FB0008020DE49083908600846006840F4803027
:100FC00008600CE0D9480838006820F48030D74920
:100FD000083908600846006820F48020086000BFD7
:100FE000606890B1FFF72CFD054606E0FFF728FD8D
:100FF000401B642801D903209EE7CC4808380068CC
:10100000C0F340400028F1D011E0FFF719FD05467C
:1010100006E0FFF715FD401B642801D903208BE78C
:10102000C24808380068C0F340400028F1D1207859
:1010300000F0020002285FD1BC48006800F00C00FC
:1010400058B1BA48006800F00C0008281CD1B74815
:10105000001F006800F48000B0B9B4480838006888
:10106000C0F3400020B1E068012801D0012063E70F
:10107000AE480838006820F0F800216940EAC10055
:10108000AA490839086037E0E06800B30120A849A0
:101090000860FFF7D5FC054606E0FFF7D1FC401BD2
:1010A000022801D9032047E7A04808380068C0F3A8
:1010B00040000028F1D09D480838006820F0F80072
:1010C000216940EAC10099490839086014E000200C
:1010D00097490860FFF7B4FC054606E0FFF7B0FC4F
:1010E000401B022801D9032026E7904808380068F1
:1010F000C0F340000028F1D1207800F00800082853
:101100002CD16069A8B101208A490860FFF798FCDA
:10111000054606E0FFF794FC401B022801D9032096
:101120000AE782486C300068C0F340000028F1D024
:1011300014E000207F490860FFF782FC054606E0C6
:10114000FFF77EFC401B022801D90320F4E6774814
:101150006C300068C0F340000028F1D1207800F026
:101160000400042870D1002770483830006800F06F
:10117000805090B900BF002000906C483830006863
:1011800040F080506949383108600846006800F036
:101190008050009000BF00BF01276748006800F43E
:1011A0008070B0B96448006840F48070624908609B
:1011B000FFF746FC054606E0FFF742FC401B02280D
:1011C00001D90320B8E65C48006800F4807000286C
:1011D000F2D000BFA068012808D1544868300068E8
:1011E00040F001005149683108601DE0A068052801
:1011F0000DD14E486830006840F004004B4968311A
:1012000008600846006840F0010008600CE04748AC
:101210006830006820F001004449683108600846E1
:10122000006820F00400086000BFA068A8B1FFF7C4
:1012300007FC054609E0FFF703FC401B41F288313B
:10124000884202D9032077E626E0384868300068F3
:10125000C0F340000028EED013E0FFF7F1FB054695
:1012600008E0FFF7EDFB401B41F28831884201D9CD
:10127000032061E62D4868300068C0F34000002874
:10128000EFD1012F07D129483830006820F0805075
:1012900026493831086000BFA069002845D023489E
:1012A000006800F00C0008285DD0A069022845D134
:1012B00000201F490866FFF7C3FB054606E0FFF75D
:1012C000BFFB401B022801D9032035E61748083828
:1012D0000068C0F340600028F1D1D4E90701084359
:1012E000616A40EA81110122A06AC2EB500041EA22
:1012F00000412C20005D41EA00600C49091F086094
:1013000001200B490866FFF79BFB054606E0FFF747
:1013100097FB401B022801D903200DE6034808383B
:101320000068C0F340600028F1D049E0083802406E
:1013300000004742800E47420070004000202149D3
:101340000866FFF77DFB054606E0FFF779FB401BCB
:10135000022801D90320EFE51B480068C0F3406074
:101360000028F2D12CE0A069012800D1E4E516485C
:10137000001D0668A069012820D006F48001E069FC
:1013800081421BD106F03F01206A814216D147F607
:10139000C0703040616AB0EB811F0FD106F440315C
:1013A0000122A06AC2EB5000B1EB004F06D106F05B
:1013B00070612C20005DB1EB006F01D00120BBE516
:1013C0000020B9E5000047420038024070477047EE
:1013D00010B504460CB9012010BD94F83D0028B9A1
:1013E000002084F83C00204600F025F8022084F814
:1013F0003D00211D206800F053FE012084F84600C6
:1014000000BF84F83E0001213F20015540200155D6
:101410004120015500BF00BF012084F84200432055
:101420000155442001554520015500BF012084F895
:101430003D000020D0E77047014691F83D000128AB
:1014400001D001207047022081F83D000868C06883
:1014500040F001000B68D860164B0868984213D022
:101460000868B0F1804F0FD0134B086898420BD03A
:10147000124B0868984207D0114B0868984203D075
:10148000104B086898420CD10868806800F0070289
:10149000062A0CD00868006840F001000B6818604C
:1014A00005E00868006840F001000B681860002043
:1014B000C8E70000000001400004004000080040B0
:1014C000000C004000400140704710B50446206801
:1014D0000069C0F34000D8B12068C068C0F3400084
:1014E000B0B16FF002002168086101202077206808
:1014F000806900F0030018B12046FFF7E5FF05E022
:10150000204600F0ADF8204600F0ABF80020207730
:1015100020680069C0F38000D8B12068C068C0F3BB
:101520008000B0B16FF004002168086102202077CC
:101530002068806900F4407018B12046FFF7C4FFAE
:1015400005E0204600F08CF8204600F08AF80020E4
:10155000207720680069C0F3C000D8B12068C06857
:10156000C0F3C000B0B16FF008002168086104202A
:1015700020772068C06900F0030018B12046FFF70B
:10158000A3FF05E0204600F06BF8204600F069F864
:101590000020207720680069C0F30010D8B12068CF
:1015A000C068C0F30010B0B16FF01000216808618E
:1015B000082020772068C06900F4407018B12046E8
:1015C000FFF782FF05E0204600F04AF8204600F0D1
:1015D00048F8002020772068006900F0010058B129
:1015E0002068C06800F0010030B16FF00100216890
:1015F0000861204600F036F820680069C0F3C0108A
:1016000058B12068C068C0F3C01030B16FF08000DE
:10161000216808612046FFF7D9FE20680069C0F301
:10162000801058B12068C068C0F3801030B16FF0EE
:10163000400021680861204600F01DF8206800691C
:10164000C0F3401058B12068C068C0F3401030B1FA
:101650006FF02000216808612046FFF7B8FE10BD3A
:101660007047704710B504462068B0F1804F01D133
:10167000FFF7ECF910BD704710B504460CB9012016
:1016800010BDA06900B100E000BF94F83D0028B98A
:10169000002084F83C00204600F028F8242084F83C
:1016A0003D002068C06820F400502168C8602046D2
:1016B00000F048FD2068006920F49040216808612E
:1016C0002068406920F02A00216848612068C068CD
:1016D00040F400502168C86000202064202084F875
:1016E0003D0084F83E000020CAE7000010B586B037
:1016F0000446142101A8FEF717FE1B492068884202
:1017000030D100BF002000901848006840F0100061
:10171000164908600846006800F01000009000BFFD
:1017200000BF00BF0020009010481438006840F04F
:1017300001000E49143908600846006800F00100F5
:10174000009000BF00BF4FF4C060019002200290E3
:1017500000200390032004900720059001A904486D
:10176000FFF78AF806B010BD00100140443802406F
:101770000000024000BFFEE704460D46164614A1D5
:10178000002000F00DFA1CA1002000F009FA21460B
:10179000002000F005FA1AA1002000F001FA294605
:1017A000002000F0FDF919A1002000F0F9F93246FF
:1017B00019A1002000F001FA00BF502080F3118829
:1017C000BFF34F8FBFF36F8F00BF00BFFEE7000076
:1017D0000D0A5B4153534552545D20456173794C6A
:1017E0006F676765722061737365727420666169E3
:1017F0006C65640D0A000000657870723A20000084
:101800000D0A66756E633A20000000000D0A6C69CF
:101810006E653A2000000000256C750D0A0000007E
:1018200000BF4FF0FF310D48006802F057FD30B1A6
:101830000BA1002000F0B4F9002003F0A1FE00BFCE
:101840004FF480610F4801F0EBFC04461CB12146C7
:101850000C4802F02FF9002CF2D1E2E7A0000020A2
:1018600053656D6170686F7265206661696C65644F
:101870002E205461736B2064656C6574652E0D0AAF
:1018800000000000384A002010B5FF21002002F0BF
:10189000BDF91721012002F0B9F91721022002F049
:1018A000B5F91721032002F0B1F91721042002F045
:1018B000ADF91721052002F0A9F910BD014606294E
:1018C00010D2DFE801F0030507090B0D0020704777
:1018D0000120FCE70220FAE70320F8E70420F6E7FE
:1018E0000520F4E70120F2E730B5DDE9034530BD1E
:1018F00010B500F03DFD044A0021044802F0CEFD81
:101900000349086010BD0000AC6C0008E91D000828
:101910000000002008B500BF0020009015480068B6
:1019200040F00400134908600846006800F0040015
:10193000009000BF00BF00BF002000900846006874
:1019400040F0800008600846006800F080000090C9
:1019500000BF00BF00BF002000900846006840F0B4
:10196000010008600846006800F00100009000BF18
:1019700000BF08BD3038024010B50B480B49086065
:101980004FF4E1304860002108488160C160016186
:101990000C21416100218161C161FFF76DFE08B139
:1019A000FEF766FF10BD000000100140D8000020C7
:1019B00000BFFEE700BFFEE710B50446044800780C
:1019C00008B90C2010BD204602F084F90020F9E788
:1019D0009800002001480068704700009C0000202B
:1019E00010B5002426480078012801D1002010BD40
:1019F00000221146102002F0BDFC22490860084672
:101A0000006808B90720F2E71F4A00211F4802F0CA
:101A100045FD1F4908600846006808B9072413E01F
:101A200001F0B4FD08B10F240EE01A4801F0C2FB2A
:101A3000FFF72AFF02F0BAF9012011490870164891
:101A4000164908600020D2E71148006830B11048FC
:101A5000006802F07FFD00200D4908600948006819
:101A600030B10848006802F06FFC002005490860AA
:101A70000020034908700A48084908602046B6E774
:101A800098000020A00000200C6D0008211800081C
:101A9000A400002079170008E53500089C0000200C
:101AA000E918000870B504460848007808B90C2009
:101AB00070BD062C01DB0320FAE72046FFF7FEFE8F
:101AC000054602F023F80020F2E70000980000200D
:101AD0002DE9F04104460D46164600BF0E4F3878FA
:101AE000532801D000F056FC00BFEFF311800746E9
:101AF000202080F3118800BF00BF324629462046CF
:101B000000F00CF88046F8B280F3118800BF00BFE7
:101B10004046BDE8F0810000384E00202DE9F04736
:101B2000074688461646C24607EB47011B4800EBAE
:101B3000C109D9F8140020B1012811D0022826D1FA
:101B40001EE0484600F05EFC0546B54201D2002486
:101B500005E0344632465146484600F0AAFD18E0FA
:101B6000484600F04FFC0546B54201D2284600E049
:101B70003046044622465146484600F09AFD08E0A9
:101B800032465146484600F059FD044601E0002423
:101B900000BF00BF2046BDE8F0870000504E002087
:101BA00070B505460C462046FEF7DBFB064632467E
:101BB00021462846FFF78CFF70BD0FB438B50446A8
:101BC00006A800906A462046059900F007F80546E9
:101BD00000200090284638BC5DF814FB2DE9F04F3A
:101BE00099B082460D46144603A8149040201590E3
:101BF00000201690CDF860A0179000BF2E786D1CC5
:101C000006B9DDE0252E79D100274FF0010900BF8C
:101C10002E78232E12D02B2E0CD02D2E02D0302E2B
:101C200010D103E047F001076D1C0EE047F00207FA
:101C30006D1C0AE047F004076D1C06E047F008073A
:101C40006D1C02E04FF0000900BF00BFB9F1000FAA
:101C5000DED14FF0000800BF2E78302E01DB392E88
:101C600000DD07E06D1CA6F1300008EB880100EBF9
:101C70004108F1E700BF002013902E782E2E12D1DC
:101C80006D1C00BF2E78302E01DB392E00DD09E0FF
:101C90006D1CA6F13000139901EB810100EB4100AE
:101CA0001390EFE700BF2E7800BF6C2E01D0682E96
:101CB00002D16D1C2E7800E000E0F6E700BF702E28
:101CC0005DD008DC252E6AD0582E35D0632E09D081
:101CD000642E69D113E0732E3CD0752E1DD0782E62
:101CE00062D128E02168081D2060D1F8009009F039
:101CF000FF0B594614A800F07FFC56E058E021681D
:101D0000081D2060D1F80090CDE900870A224946DD
:101D100014A8139B00F084FB47E02168081D206095
:101D2000D1F80090CDE900870A22494614A8139BF8
:101D300000F0ECFB39E000BF2168081D2060D1F8FD
:101D40000090CDE900871022494614A8139B00F0AB
:101D5000DDFB2AE02168081D2060D1F800B000BF3B
:101D60009BF800600BF1010B06B906E0314614A8A0
:101D700000F042FC17980028F2DA00BF15E0216855
:101D8000081D2060D1F80090002008210B46102289
:101D9000CDE90010494614A800F0B8FB05E0252164
:101DA00014A800F029FC00E000BF00BF6D1C03E098
:101DB000314614A800F020FC17980028BFF61EAF8B
:101DC00000BF179800280ADD169820B103A95046D5
:101DD000169AFFF77DFEDDE9161008441790179854
:101DE00019B0BDE8F08F00001CB5FFF7F9FD0446FF
:101DF0002CB100BF4FF47A7002F040F9FAE764208A
:101E000002F03CF92FA08A21CDE90010FFF7E2FD96
:101E10000546324B32A238A10320A847642002F0C5
:101E20002DF90220FFF73EFE36A09021CDE90010EB
:101E3000FFF7D0FD0546294B29A22FA10120A84775
:101E400039A09121CDE90010FFF7C4FD0546234BD1
:101E500023A229A10220A8473BA09221CDE900108E
:101E6000FFF7B8FD05461D4B1DA223A10320A8477F
:101E7000C82002F003F90020FFF79EFD3BA0992146
:101E8000CDE90010FFF7A6FD0546144B14A21AA1D8
:101E90000120A847C82002F0F1F80120FFF78CFDCF
:101EA0003BA0A021CDE90010FFF794FD05460B4BA8
:101EB0000BA211A10120A84700BF4FF47A7002F0D5
:101EC000DDF8FAE75B5445535420315D206C6F67B1
:101ED00020696E6974206F6B00000000D06C0008F0
:101EE0002E2E2F436F72652F5372632F66726565B6
:101EF00072746F732E6300006672737372746F7303
:101F0000303031005B5445535420325D20455252ED
:101F10004F522073686F756C642062652076697318
:101F200069626C65000000005B5445535420325DCB
:101F3000205741524E2073686F756C642062652093
:101F400076697369626C65005B5445535420325D59
:101F500020494E464F2073686F756C64204E4F5475
:101F60002062652076697369626C65005B54455335
:101F70005420335D20746869732073686F756C64D6
:101F8000204E4F542062652076697369626C65004B
:101F90005B5445535420345D206F75747075742004
:101FA000656E61626C656420616761696E00000046
:101FB00010B54FF0E020006904F0C6FB012801D005
:101FC00003F058FD10BD000000B593B0302107A804
:101FD000FEF7AAF9142102A8FEF7A6F900BF002017
:101FE00001902448006840F080502249086008466B
:101FF000006800F08050019000BF00BF00BF0020CB
:1020000001901D48006840F440401B4908600846A4
:10201000006800F44040019000BF00BF022007901C
:1020200001200A9010200B9002200D9000210E91AB
:1020300008210F9164211091022111910421129124
:1020400007A8FEF775FF08B1FEF712FC0F200290FB
:1020500002200390002004904FF48050059000204F
:102060000690032102A8FEF701FE08B1FEF700FC6E
:1020700013B000BD403802400070004003480068C3
:1020800040F47000014908607047000088ED00E0EE
:1020900010B50248FFF719FA10BD00001C0100201E
:1020A00010B50268204B98420BD0B0F1804F08D099
:1020B0001E4B984205D01E4B984202D01D4B9842B1
:1020C00003D122F070024B681A43174B984214D088
:1020D000B0F1804F11D0154B98420ED0144B98425E
:1020E0000BD0144B984208D0134B984205D0134B99
:1020F000984202D0124B984203D122F44072CB682E
:102100001A4322F080034C6943EA040202608B68A0
:10211000C3620B688362044B984201D10B6903636D
:102120000123436110BD0000000001400004004095
:1021300000080040000C0040004001400044014005
:10214000004801402DE9F84F04462068006920F45A
:102150004050E1680843216808612169A06808438C
:1021600061690843E169084300902068C06849F24A
:102170000C618843009908432168C8602068406961
:1021800020F44070A16908432168486176492068BD
:10219000884203D075492068884203D1FEF760FE6B
:1021A000814602E0FEF74CFE8146E069B0F5004F43
:1021B0006CD102206168A0FB015003461920A9FBE5
:1021C000007001462A463846FEF764F86421B0FBE9
:1021D000F1F04FEA001A02206168A0FB01510B46A2
:1021E0001920A9FB00712A463846FEF753F88346AA
:1021F00002206168A0FB015003461920A9FB007171
:102200002A463846FEF746F86421B0FBF1F000EBB1
:10221000C00101EB0010ABEB8000322101EBC000EC
:102220006421B0FBF1F000F0F8000AEB400A022054
:102230006168A0FB015003461920A9FB007001460C
:102240002A463846FEF726F8834602206168A0FB3E
:10225000015003461920A9FB00712A463846FEF7B3
:1022600019F86421B0FBF1F000EBC00101EB0010A4
:10227000ABEB8000322101EBC0006421B0FBF1F038
:1022800000F007005044216888606AE0042061681B
:10229000A0FB015003461920A9FB007001462A4605
:1022A0003846FDF7F7FF824604206168A0FB015025
:1022B00003461920A9FB007001462A463846FDF75F
:1022C000E9FF6421B0FBF1F000EBC00101EB00106D
:1022D000AAEB8000322101EB00106421B0FBF1F089
:1022E00000F0F00A04206168A0FB01700346192089
:1022F000A9FB00513A462846FDF7CCFF6421B0FB0C
:10230000F1F00AEB001A04206168A0FB01510B46B2
:102310001920A9FB00712A463846FDF7BBFF83460A
:1023200004206168A0FB015003461920A9FB00703E
:1023300001462A463846FDF7ADFF6421B0FBF1F0B7
:1023400000EBC00101EB0010ABEB8000322101EB90
:1023500000106421B0FBF1F000F00F005044216840
:102360008860BDE8F88F00000010014000140140B3
:102370001FB5054B0FCB8DE80F00684601F02DFF10
:10238000024908601FBD0000E46C00080400002042
:1023900000BFFEE770B5144CA8212046FDF7C4FF2E
:1023A00003202061606111A0A0611349E1614FF435
:1023B000806121620021A1626162E1620BA020665E
:1023C0000E4961661021A16600212167E1666167FF
:1023D000002505E0C5F10F000949085C60556D1C3A
:1023E000102DF7D370BD0000384E00205465726D7B
:1023F000696E616C00000000E04E0020E052002099
:10240000406D000810B501460A69CB689A4204D8AD
:102410008C68641EE41AA01801E0D41A601E10BD76
:102420002DE9FC5F06460F4692469846DDE90C45CD
:10243000002F01DA784200E0384683464FF0010968
:1024400003E09BFBFAFB09F10109D345F9DAC84522
:1024500000D9C14634B1002F03DB05F00400042885
:1024600000D1641E05F0020010B1B8F1000F11D0C8
:1024700005F0010070B96CB108E0641E20213046FF
:1024800000F0BAF8F068002800DA02E00CB1A145CB
:10249000F3D300BFF068002836DB002F05DA7F4257
:1024A0002D21304600F0A8F807E005F004000428CC
:1024B00003D12B21304600F09FF8F068002823DB81
:1024C00005F00200022814D105F0010088B9B8F126
:1024D000000F0ED16CB108E0641E3021304600F0D0
:1024E0008BF8F068002800DA02E00CB1A145F3D3C4
:1024F00000BFF068002807DB4346524639463046A5
:10250000CDE9004500F002F8BDE8FC9F2DE9FC5F35
:102510008046894615461E460C9CCDF8049001273E
:10252000BB4605E00198B0FBF5F001900BF1010B03
:102530000198A842F6D25E4500D9B3460D9800F046
:102540000100D0B9CCB10D9800F00200022803D1EF
:1025500016B93020009001E02020009009E0641EB0
:102560004046009900F048F8D8F80C00002800DA3E
:1025700002E00CB1A345F2D300BFD8F80C0000284C
:1025800035DB09E0012E01D9761E04E0B9FBF7FA2C
:10259000AA4500D201E06F43F4E700BF00BFB9FBDA
:1025A000F7FA0AFB1799134810F80A10404600F092
:1025B00023F8D8F80C00002800DA03E0B7FBF5F7A1
:1025C000002FECD100BF0D9800F0010078B174B17C
:1025D00009E0641E2021404600F00EF8D8F80C00F7
:1025E000002800DA02E00CB1A345F2D300BFBDE839
:1025F000FC9F0000516D000870B504460E46A568AA
:10260000681C6168814206D320684655681CA0603A
:10261000E068401CE060D4E9011088420DD1A26856
:1026200021682069FFF754FAA168884203D04FF06F
:10263000FF30E06001E00020A06070BD2DE9F05F98
:102640000446894617464FF0000AE56800BFD4F8F3
:102650001080A84503D9A8EB0500461E04E0A5EBB1
:102660000800401CA1680E1AA068401BB04201D9A6
:10267000304601E0A068401B0646BE4201D230460B
:1026800000E038460646606800EB050B32464946D6
:102690005846FDF730FEB244B144BF1B3544A06834
:1026A000A84200D10025E560002FD0D15046BDE8FA
:1026B000F09F2DE9F047044689461546E668A06874
:1026C000871BAF420AD9606800EB060A2A464946D2
:1026D0005046FDF710FE7019E06014E0B8466068DF
:1026E00000EB060A424649465046FDF704FEA5EBBC
:1026F0000708D4F804A009EB070142465046FDF74D
:10270000FAFDC4F80C80BDE8F08700000FB47CB57A
:102710000C0009AD01D0611E00E00021CDE90001EF
:10272000064B6A462946089800F014F9002C02D09E
:10273000009A002111707CBC5DF814FB5B3000082E
:102740007CB50C001D461646014601D0601E00E017
:102750000020CDE90010064B6A462946304600F0BD
:10276000F9F8002C02D0009A002111707CBD000005
:102770005B30000802480068C0F302207047000088
:102780000CED00E010B5002804DB0A07130E054A23
:10279000135406E00A07140E034A00F00F031B1F30
:1027A000D45410BD00E400E018ED00E0EFF3058024
:1027B000704702E008C8121F08C1002AFAD170470A
:1027C0007047002001E001C1121F002AFBD17047B1
:1027D0002DE9FF5F82B00021DDE90430020DDDF854
:1027E00040B0034318D044F61050A2F2FF324243E7
:1027F0001514119801281FD0A5EB0B00401C5FEAAF
:10280000000A4FF000064E4FDFF83891B0465046B0
:1028100015D5CAF1000413E0119801244AA3012838
:1028200001D16FEA0B010298119AC0E90031C0E9A9
:10283000024206B0BDE8F09FCBF10000DFE704469E
:102840000021404A491842EB0450CDE9001012E043
:10285000E00707D032463B4640464946FDF773FE47
:102860008046894632463B4610461946FDF76BFEC8
:1028700006460F466410002CEAD1DDE90401DDE9CB
:102880000023BAF1000F06DAFDF75DFE42464B4623
:10289000FDF759FE05E0FDF7C8FE42464B46FDF741
:1028A000C4FE04460E460022284BFDF745FF03D820
:1028B0004FF0FF30014607E00022254B204631460D
:1028C000FDF79AFDFDF720FF102409E0002C0ADB3C
:1028D0000A220023FDF7DEFC039B30321A55641EEA
:1028E00050EA0102F2D1641C039AC4F111031444AA
:1028F000119A012A03D0012208430DD10AE00843AE
:1029000004D000204FF0110B119072E7A3EB0B05E0
:102910006D1E0DE05B4504DD4FF0000205F1010581
:1029200004E003DA4FF00002A5F10105002AECD023
:1029300002981199C0E90231C0E9004579E7000029
:10294000000014400000F03F300000000000F043A1
:102950000000E03F2DE9FF4F95B09A4688460646B5
:102960000025EEE1252877D100242746F94A0121E8
:10297000039400E0044316F8013F203B01FA03F002
:102980001042F7D130782A2811D06FF02F03307819
:10299000A0F13002092A16D8039A44F0020402EB8F
:1029A000820203EB42021044761C0390EFE758F8D2
:1029B000042B0392002A03DA504244F4005403909B
:1029C00044F00204761C30782E2816D116F8010F38
:1029D00044F004042A280DD06FF02F023078A0F1C3
:1029E0003003092B09D807EB870302EB4303C71811
:1029F000761CF3E758F8047B761C30786C280FD0EF
:102A000006DC4C2817D068280DD06A2814D104E0C1
:102A1000742810D07A280FD10DE044F400140AE095
:102A200044F4801401E044F440147278824202D1EC
:102A300004F58014761C761C307866280BD013DCE5
:102A4000582877D009DC002875D04528F6D04628CC
:102A5000F4D047281AD193E118E0632835D06428D0
:102A600079D0652812D18BE1702873D008DC6728F3
:102A7000F1D069286FD06E280DD06F2806D1ACE058
:102A800073282CD0752874D0782853D052461799C3
:102A900090476D1C54E1C4F30250022809D003286A
:102AA0000DD0D8F8001004280DD00D6008F10408EE
:102AB00046E1D8F80010EA17C1E90052F6E7D8F865
:102AC00000100D80F2E70D70F0E718F8041B8DF888
:102AD000001000208DF80100EB46012003E058F8BB
:102AE00004BB4FF0FF3061074FF0000102D40DE04E
:102AF00009F101018946B9420FDA8145F8DB1BF87B
:102B000009100029F4D108E009F101018946814248
:102B1000FADB1BF809100029F6D103985346A0EB05
:102B2000090721463846179A00F080FA284400EB3E
:102B3000090507E044E008E10DE01BF8010B5246EF
:102B400017999047B9F10109F7D253462146384603
:102B5000179AF2E039E00A21C4F302524FF0000B59
:102B60000091022A06D058F8040BC117032A09D095
:102B70000AE023E008F1070020F00702F2E8020172
:102B8000904605E000B2C117042A01D140B2C11736
:102B9000002906DA0A460021404261EB02012D229B
:102BA00002E0220504D52B228DF80420012203E047
:102BB000E20701D02022F7E7914657E00A2100E022
:102BC00010214FF0000B00910BE010214FF0000B93
:102BD00044F004040827009103E008204FF0000BA4
:102BE0000090C4F30252022A05D058F8040B0021C9
:102BF000032A08D008E008F1070020F00702F2E8F5
:102C00000201904603E080B2042A00D1C0B24FF026
:102C1000000922072AD53278702A07D0DDF800C0D3
:102C20008CF0100C5CEA0B0C05D00EE040228DF805
:102C30000420012208E050EA010306D030238DF879
:102C400004308DF8052002229146009B83F0080392
:102C500053EA0B030AD150EA010201D1620705D5FC
:102C600030228DF804204FF001097F1E3278582A57
:102C700004D039A20C920CAA02920BE03BA2F9E715
:102C80005B46009AFDF706FB0C9B9B5C029A521E6A
:102C90000292137050EA0102F2D1029804A9081AB4
:102CA00000F1200B600702D524F4803400E00127F6
:102CB0005F4502DDA7EB0B0000E0002000EB0B01FD
:102CC000009003984944401A0390E00306D4534609
:102CD0002146179A039800F0A9F90544002706E059
:102CE00001A85246C05D179990476D1C7F1C4F4547
:102CF000F6DBE0030CD553462146179A039800F003
:102D000095F9054404E030205246179990476D1C10
:102D10000099481E00900029F5DC08E0029802990D
:102D200052460078491C0291179990476D1CBBF1DF
:102D30000001ABF1010BF1DC5BE100F065F905444A
:102D4000761C307800287FF40DAE19B02846BDE817
:102D5000F08F000009280100303132333435363726
:102D600038396162636465660000000030313233D7
:102D70003435363738394142434445460000000077
:102D8000600700D4062708F1070020F00700F0E8EC
:102D90000223804603F0004C5FEA0C0001D097A0AC
:102DA00009E0200501D596A005E0E00701D095A037
:102DB00001E0AFF24C001390307823F00043652817
:102DC0000CD006DC452809D046281DD047287FD1E5
:102DD0003BE0662818D067287AD136E00021112F11
:102DE00001DB112000E0781CCDE9000104A90CA84A
:102DF000FFF7EEFCDDE90D010C9A4FF0000B07F137
:102E00000109109200914EE04FF000400097CDE98B
:102E1000011004A90CA8FFF7DBFCDDE90D020C9BF7
:102E20000F994FF0000B91461093009211B9791C45
:102E300000EB0109B7EB090003D4C0F1FF3B07F138
:102E40000109A9EB0700019042E0012F00DA0127F8
:102E50000021112F01DD112000E03846CDE90001ED
:102E600004A90CA8FFF7B4FCDDE90D010C9A009150
:102E70004FF0000BB946109221070FD4009A4A4533
:102E800003DA914601E0A9F10109B9F1010F05DD6D
:102E9000109AA9F10101515C3029F4D0B84202DA4C
:102EA00010F1040F03DA0121CDE9011010E0002830
:102EB00003DC8344A9EB000102E0411C494500DD2D
:102EC0008946A0EB0B00401C01904FF0004002909F
:102ED000200705D40198484502DB4FF0FF300190F0
:102EE00000208DF84B0002980DF14B07B0F1004F18
:102EF00025D002200C902B200D90029800280CDA8F
:102F0000404202902D200D9007E00A210298FDF723
:102F10003EFA3031029007F8011D0C99481E0C90C2
:102F20000029F2DC02980028EFD1791E0D98087074
:102F3000307800F0200040F0450007F8020D11A89D
:102F4000C01BC01D02901398007800B1012000EB57
:102F50000901019801EBE071029801440398401ABD
:102F6000401E0390E00306D453462146179A039867
:102F700000F05CF805441398007818B15246179990
:102F800090476D1CE00323D553462146179A0398BA
:102F900000F04CF805441BE0BBF1000F07DB009884
:102FA000584504DD1098179910F80B0001E01799A7
:102FB00030205246904701980BF1010B401E05F15D
:102FC0000105019004D12E205246179990476D1C9F
:102FD000B9F10001A9F10109DEDC05E017F8010BE8
:102FE0005246179990476D1C0299481E029000297D
:102FF000F4DC53462146179A03989EE62D00000004
:103000002B000000200000002DE9F04104460025BF
:103010001E461746880404D405E039462020B047F0
:103020006D1C641EF9D52846BDE8F0812DE9F041FC
:10303000044600251E469046C80301D5302700E00F
:103040002027880404D505E041463846B0476D1C6A
:10305000641EF9D52846BDE8F0814A68002A06D0EA
:103060000A68531C0B6010704868401E4860704727
:1030700010B500F0ABF8C0F5A04010BD70B5054626
:103080000C460026FFF7F4FF06460EB900243CE08C
:10309000A64203D8344601201D4908701D48006827
:1030A0002044B0F5A04F0DD21B491A4A1268881867
:1030B00022462946FDF71FF91648006820441549A5
:1030C00008601EE013490968C1F5A0421249114B7E
:1030D0001B68C8182946FDF70EF90E480068C0F5B0
:1030E000A040221A05F5A0400A4B1B68C11A0A48E5
:1030F000FDF701F9A4F5A04006490968084405490F
:10310000086000200549087000BF204670BD00001F
:10311000D0000020C8000020E8570020D100002087
:103120002DE9F04707463E4656B900BF502080F3D0
:103130001188BFF34F8FBFF36F8F00BF00BFFEE753
:1031400017480068864201D1002426E002F092F878
:1031500075691448D0F800801348D0F8009002F048
:10316000B3F8454501D04D4501D1022415E00F4883
:1031700085420BD1B06A38B996F85800012801D1C0
:1031800002240AE0032408E0022406E008488542FD
:1031900000D00DB9042400E001242046BDE8F087EA
:1031A000180000201C0000202000002054060020F1
:1031B000400600200149086070470000C000002060
:1031C0000149087070470000C500002010480068E1
:1031D00010490968884205D90D4800680D490968F9
:1031E000401A70470C48007850B90C48007838B93C
:1031F0000848006806490968401AC0F5A040F0E791
:103200000548007810B14FF4A040EAE70020E8E755
:10321000C8000020CC000020D0000020D1000020F9
:103220002DE9F04107460D460026002400F0BCFBC6
:10323000FFF7CCFF064606B105B946E0AE4200D81E
:103240003546244800682844B0F5A04F0ED22248E5
:10325000204A126881182A46384600F07BF8044656
:103260001C48006820441B49086024E01948006895
:10327000C0F5A0421848174B1B68C118384600F02B
:1032800069F8044613480068C0F5A040A0420DD17B
:103290002A1B3819104900F05DF80444A4F5A04039
:1032A0000C49096808440B49086004E009480068B3
:1032B000204408490860A64202D10120074908704D
:1032C00014B100200649087000BF00F0A1FB2046A1
:1032D000BDE8F081CC000020E8570020D10000209C
:1032E000D000002000200449097801B17047012175
:1032F000014A117000BFF9E7C40000202DE9F04138
:1033000005460E4617460C48007878B1042D08DBB8
:1033100039463046FFF7B2FE04465CB100F00EF8C5
:1033200008E03946304600F0C5FB03E03946304638
:1033300000F0C0FBBDE8F081C500002010B50448D6
:10334000006818B10248006801F07AF810BD00006A
:10335000A00000202DE9F04186B005460C469046BD
:1033600001260027002D1AD127480068002810D117
:103370004620264926A228A3CDE90310CDE9013233
:1033800000900B462DA238A1002000F02BF900BFC1
:10339000FEE746221D491EA01B4B1B689847002CC8
:1033A00019D11948006880B94720184930A21AA3DA
:1033B000CDE90310CDE9013200900B461FA22AA1EE
:1033C000002000F00FF900BFFEE747220F4928A0B8
:1033D0000D4B1B6898470DE014F8010B05F8010B25
:1033E0007F1CB74206D3A01B324622A1FCF7C0FFC8
:1033F00000B904E0B8F10000A8F10108ECD100BF69
:10340000384606B0BDE8F081C0000020336E0008E9
:103410006C696E65000000002825732920686173BF
:1034200020617373657274206661696C65642061E4
:10343000742025733A256C642E0000002E2E5C301B
:10344000355F76656E646F72735C656173796C6FFE
:10345000676765725C7372635C656C6F675F7574D8
:10346000696C732E63000000656C6F6700000000DC
:103470006C6F67000A00000070B586B00546002D2D
:103480001CD126480068002811D14FF4F07024495F
:1034900024A229A3CDE90310CDE9013200900B4607
:1034A0002EA237A1002000F09DF800BFFEE74FF4E8
:1034B000F0721B491BA0194B1B6898470024052676
:1034C000314890F8F00010B9304606B070BD00F0F9
:1034D0006BFA00241BE004EB44112B483130084404
:1034E00090F82000012810D104EB44122648313016
:1034F0001044411C1E222846FCF73AFF28B904EB71
:10350000441121483130465C03E0601CC4B2052CF4
:10351000E1DB00BF00F07CFA3046D6E7C0000020B7
:10352000D76D000874616720213D202828766F69D7
:1035300064202A2930290000282573292068617316
:1035400020617373657274206661696C65642061C3
:10355000742025733A256C642E0000002E2E5C30FA
:10356000355F76656E646F72735C656173796C6FDD
:10357000676765725C7372635C656C6F672E63006E
:10358000656C6F6700000000F052002010B5002449
:10359000134890F8F000012801D1204610BD00F03A
:1035A0007BFA04460CB12046F8E7FFF79BFE044681
:1035B0000CB12046F2E7012000F00AFA0020084989
:1035C00081F8F30081F8F400052000F09FFA00F084
:1035D000FFFA0120024981F8F0002046DEE70000F2
:1035E000F05200200FB42DE9F04F8DB005460F4684
:1035F0009846DDF868903846FCF7B3FE8246002412
:103600004FF0010B00200B900C9007900890099050
:103610000A90052D1CDDBC480068002811D140F23D
:103620003E20BA49BAA2C1A3CDE90310CDE90132C7
:1036300000900B46C6A2CFA10020FFF7D3FF00BF2A
:10364000FEE740F23E22B149B1A0AF4B1B6898475C
:10365000CA4890F8F10020B90DB0BDE8F00F5DF850
:1036600014FBC6480078A84204DB3846FFF704FF85
:10367000A84200DAF0E7C149491C3846FCF75FFE72
:1036800000B9E9E71CA8069000F08EF90121284650
:1036900000F05EFC40B1BA4850F82520B948011945
:1036A000204600F0CFFB04440221284600F050FCE5
:1036B000E8B1B44801193A46204600F0C3FB04447F
:1036C000BAF10F0F0CD8CAF10F01202207A8FCF79E
:1036D00024FEAC48011907AA204600F0B3FB0444BD
:1036E000A8480119A8A2204600F0ACFB04441C2104
:1036F000284600F02DFC002852D0A2480119A3A2B0
:10370000204600F09FFB04440421284600F020FCE2
:10371000A8B100F0A3F905909A4801192046059A2E
:1037200000F090FB04441821284600F011FC30B151
:103730009448011994A2204600F084FB0444082117
:10374000284600F005FCA8B100F076F905908D48F8
:1037500001192046059A00F075FB04441021284603
:1037600000F0F6FB30B18748011987A2204600F02F
:1037700069FB04441021284600F0EAFB48B100F040
:103780005FF905907F4801192046059A00F05AFB21
:1037900004447C4801197EA2204600F053FB0444F7
:1037A00020212846189A00F03DFC60B9424640218D
:1037B000284600F037FC30B94A468021284600F000
:1037C0003FFC002862D06F48011972A2204600F029
:1037D00039FB044420212846189A00F023FC08B342
:1037E000684801192046189A00F02CFB0444424610
:1037F0004021284600F016FC38B16248011966A243
:10380000204600F01FFB04440CE04A468021284675
:1038100000F016FC30B15B4801195BA2204600F0B5
:1038200011FB04444A468021284600F009FCC8B137
:103830004B465AA205210BA8FEF768FF5148011913
:103840000BAA204600F0FEFA0444424640212846D6
:1038500000F0E8FB30B14B4801194BA2204600F0C4
:10386000F1FA044442464021284600F0DBFB30B127
:10387000444801194246204600F0E4FA0444414815
:10388000011947A2204600F0DDFA0444C4F5806126
:103890003C4A1019069B1B9AFEF752FF0646002071
:1038A0000690A019B0F5806F03D8002E01DB3444D8
:1038B00001E04FF4806404EB0B00B0F5806F03D996
:1038C0004FF48064A4EB0B042C4890F8200058B10E
:1038D00000202C490855294920312A48FCF72FFDA2
:1038E00010B900F095F8B7E6264801192DA2204638
:1038F00000F0A8FA0444224622492846FFF7FEFCBD
:1039000000F086F800BFA7E6C0000020EF6D0008B9
:103910006C6576656C203C3D20454C4F475F4C56AE
:103920004C5F564552424F534500000028257329ED
:103930002068617320617373657274206661696CBD
:1039400065642061742025733A256C642E000000A4
:103950002E2E5C30355F76656E646F72735C6561C8
:1039600073796C6F676765725C7372635C656C6FAB
:10397000672E6300656C6F6700000000F052002046
:10398000A8000020E8530020200000005B00000099
:103990005D200000280000003A000000256C640053
:1039A000290000000A00000010B5084890F8F20055
:1039B00030B100F089F80120044981F8F40003E0F7
:1039C0000120024981F8F30010BD0000F0520020F0
:1039D00010B504460D4880F8F24090F8F200A0B10E
:1039E0000A4890F8F40030B9084890F8F30010B194
:1039F00000F06AF809E0054890F8F40028B103489F
:103A000090F8F30008B900F071F810BDF0520020F2
:103A100010B5084890F8F20030B100F067F80020C7
:103A2000044981F8F40003E00020024981F8F30022
:103A300010BD0000F052002000A070470000000000
:103A400010B500F02BFB022803D1002000F0A0FDF0
:103A500010BD01A0FCE700000000000010B500F060
:103A60001DFB022809D100F033FB0446234608A2BF
:103A700010210848FEF74AFE08E0FCF7E1FF044683
:103A8000234603A210210348FEF740FE014810BD63
:103A9000256C7500E8A7002010B5002404480068D4
:103AA00020B9002000F099FB01490860204610BDB4
:103AB000D400002070B504460D462A462146002059
:103AC000FEF706F870BD000010B500F0E7FA022816
:103AD00008D10548006828B14FF0FF31024800685E
:103AE00000F04AFB10BD0000D400002010B500F02B
:103AF000D5FA022806D10448006818B102480068C7
:103B000000F0C4FB10BD0000D400002010B586B04A
:103B10000446052C1CDD10480068002811D14FF424
:103B2000AD700E490EA215A3CDE90310CDE9013207
:103B300000900B461AA223A10020FFF753FD00BFFF
:103B4000FEE74FF4AD72054905A0034B1B6898478B
:103B50001E48047006B010BDC0000020AB6D000808
:103B60006C6576656C203C3D20454C4F475F4C565C
:103B70004C5F564552424F5345000000282573299B
:103B80002068617320617373657274206661696C6B
:103B900065642061742025733A256C642E00000052
:103BA0002E2E5C30355F76656E646F72735C656176
:103BB00073796C6F676765725C7372635C656C6F59
:103BC000672E6300656C6F6700000000F0520020F4
:103BD00010B5002400BF13E004EB44120A4911445D
:103BE000481C1F21FCF7A0FB002104EB44120648EF
:103BF000815404EB4412104480F82010601CC4B2BD
:103C0000052CE9DB10BD00002153002030B585B044
:103C100004460D46052C1CDD10480068002811D113
:103C20004FF4A0700E490FA215A3CDE90310CDE902
:103C3000013200900B461BA223A10020FFF7D2FC0B
:103C400000BFFEE74FF4A072054906A0034B1B68B6
:103C500098471F4840F8245005B030BDC0000020F0
:103C60008E6D00086C6576656C203C3D20454C4FA0
:103C7000475F4C564C5F564552424F53450000003B
:103C8000282573292068617320617373657274201D
:103C90006661696C65642061742025733A256C64E3
:103CA0002E0000002E2E5C30355F76656E646F72DC
:103CB000735C656173796C6F676765725C7372635F
:103CC0005C656C6F672E6300656C6F6700000000B9
:103CD000C853002010B586B00446002C1ED0012C1D
:103CE0001CD011480068002811D140F215100F496E
:103CF0000FA219A3CDE90310CDE9013200900B46C4
:103D00001EA227A10020FFF76DFC00BFFEE740F2D6
:103D10001512064906A0044B1B689847224880F8F4
:103D2000F14006B010BD0000C0000020766D000814
:103D300028656E61626C6564203D3D2066616C7330
:103D40006529207C7C2028656E61626C6564203D5D
:103D50003D207472756529002825732920686173D8
:103D600020617373657274206661696C656420619B
:103D7000742025733A256C642E0000002E2E5C30D2
:103D8000355F76656E646F72735C656173796C6FB5
:103D9000676765725C7372635C656C6F672E630046
:103DA000656C6F6700000000F05200200EB50C48F3
:103DB00090F8F00000B90EBD0120FFF78BFF012045
:103DC000FFF7FEF907A009A1F622124BCDE9002169
:103DD000029011A219A10320FFF704FC00BFEAE73B
:103DE000F0520020322E322E3939000045617379AD
:103DF0004C6F676765722056257320697320696E62
:103E0000697469616C697A6520737563636573733E
:103E10002E000000616D00082E2E5C30355F766547
:103E20006E646F72735C656173796C6F67676572DE
:103E30005C7372635C656C6F672E6300656C6F67A3
:103E400000000000F0B585B006460D461446274632
:103E5000002D1AD124480068002810D12C202349B5
:103E600023A224A3CDE90310CDE9013200900B4633
:103E700029A234A10020FFF7B5FB00BFFEE72C22EA
:103E80001A491BA0184B1B689847002C19D11648DB
:103E9000006880B92D2015492CA216A3CDE9031086
:103EA000CDE9013200900B461BA226A10020FFF7AE
:103EB00099FB00BFFEE72D220C4924A00A4B1B688A
:103EC00098470AE03046761CB0F5806F04D214F8AB
:103ED000010B05F8010B00E002E020780028F1D189
:103EE00000BFE01B05B0F0BDC0000020276E000839
:103EF00064737400282573292068617320617373CB
:103F0000657274206661696C656420617420257334
:103F10003A256C642E0000002E2E5C30355F7665ED
:103F20006E646F72735C656173796C6F67676572DD
:103F30005C7372635C656C6F675F7574696C732E1C
:103F400063000000656C6F6700000000737263001F
:103F500030B585B004460D46052C1CDD13480068BD
:103F6000002811D140F2DF20114912A218A3CDE997
:103F70000310CDE9013200900B461EA226A10020BD
:103F8000FFF730FB00BFFEE740F2DF22084909A03F
:103F9000064B1B689847224850F82400284010B16F
:103FA000012005B030BD0020FBE70000C00000206C
:103FB000FB6D00086C6576656C203C3D20454C4FE0
:103FC000475F4C564C5F564552424F5345000000E8
:103FD00028257329206861732061737365727420CA
:103FE0006661696C65642061742025733A256C6490
:103FF0002E0000002E2E5C30355F76656E646F7289
:10400000735C656173796C6F676765725C7372630B
:104010005C656C6F672E6300656C6F670000000065
:10402000C853002070B505460E46144634B13146DB
:104030002846FFF78DFF08B1012070BD0020FCE786
:1040400070B505460E46144634B131462846FFF792
:104050007FFF08B1012070BD0020FCE7FCF702FDE6
:10406000FDF7B2FFFDF756FCFDF786FC00F03EF8C9
:10407000FDF73EFC00F050F800BFFEE770B50546C6
:10408000FEF794FB10B16FF0050404E0002415B1B5
:10409000284601F047FA204670BD000010B502F036
:1040A00053FB28B1012806D0022803D102240AE0DC
:1040B000032408E000BF05480068012801D101245D
:1040C00000E0002400BF00BF204610BD68000020B3
:1040D00010B5FEF76BFB18B102F04CFB044602E092
:1040E00002F042FB0446204610BD000010B5FEF76A
:1040F0005DFB10B16FF0050409E00648006820B9C7
:10410000012004490860002401E04FF0FF342046FC
:1041100010BD00006800002070B5FEF747FB10B12D
:104120006FF005041FE011480068012819D100BF95
:10413000801F0021002804DB0A07130E0C4A1354C9
:1041400006E00A07150E0B4A00F00F031B1FD5549B
:1041500000BF00BF02200549086001F02BFB0024CE
:1041600001E04FF0FF34204670BD000068000020E1
:1041700000E400E018ED00E02DE9F04104460D46B2
:1041800024F0010604F001080027FEF70FFB08B138
:10419000BF1F1FE016B96FF003071BE0B8F1000F57
:1041A0000CD02946304602F0CBF9012812D015B1C7
:1041B0006FF001070EE06FF002070BE02946304672
:1041C00002F0E2F8012805D015B16FF0010701E017
:1041D0006FF002073846BDE8F0812DE9F04704464C
:1041E0000026FEF7E3FA00284DD10CB1676800E025
:1041F000002707F0010008B1012500E0002507F0C5
:10420000080008283FD04FF0FF3874B1A06828B1EB
:10421000E068502802D34FF0010808E0A06830B9E8
:10422000E06820B94FF0000801E04FF00008B8F155
:10423000010F0CD12DB10420A16801F0A6FC0646A7
:1042400012E00120A16801F0A0FC06460CE0B8F1E4
:10425000000F09D125B1042001F086FC064603E0D9
:10426000012001F081FC06464EB114B1D4F8009053
:1042700001E04FF000094946304601F0E5F816B17B
:104280000DB146F001063046BDE8F0872DE9F0415A
:10429000044624F0010504F001070026FEF786FA23
:1042A00008B1B61F16E015B96FF0030612E03FB172
:1042B000284601F02BFF01280CD06FF0020609E020
:1042C00000231A461946284601F05EFD012801D058
:1042D0006FF002063046BDE8F0810000F8B50446F4
:1042E0000D46264600270EB93F1F29E0FEF75EFA6D
:1042F000D0B115B16FF0030722E0002000906A46AC
:104300000021304601F0DAFF012802D06FF00207E9
:1043100016E00098A0B14FF080500A490860BFF342
:104320004F8FBFF36F8F0BE02946304602F02CF819
:10433000012805D015B16FF0010701E06FF0020709
:104340003846F8BD04ED00E070B505462E46FEF790
:104350002DFA10B16FF005040AE016B96FF00304EE
:1043600006E0304601F0A0F80024304601F082F863
:10437000204670BD2DE9F84305460F4614464FF020
:104380000008FEF713FA002857D1002D55D0AF4290
:1043900053D8461E64B1A06820B1E068502801D30C
:1043A000012606E0A06820B9E06810B9002600E008
:1043B0000026701C002840D0012D23D1012E09D1E8
:1043C00003200090002211460120A36801F01FFC89
:1043D000804605E003220021012001F0EBFB80462E
:1043E000B8F1000F1CD0DFB100231A461946404631
:1043F00001F0CAFC012813D0404601F03BF84FF011
:1044000000080DE0012E06D139462846A26801F0C9
:1044100079FB804604E03946284601F045FB80469A
:10442000B8F1000F09D014B1D4F8009001E04FF0BA
:1044300000094946404601F007F84046BDE8F883C8
:10444000F8B50446254600260DB9361F22E0FEF7D2
:10445000ADF9A8B1002000906946284601F0E6FDBC
:10446000012802D06FF0020614E0009890B14FF0DE
:10447000805009490860BFF34F8FBFF36F8F09E089
:1044800000231A461946284601F07EFC012801D077
:104490006FF002063046F8BD04ED00E02DE9FF475D
:1044A00080468946144600200390FEF77FF90028D5
:1044B0004ED1B8F1000F4BD0802618258246471EFA
:1044C00044B3206808B1D4F800A0A06900B1A56980
:1044D0002DB1382D03D8207900F0010018B100204B
:1044E00004B0BDE8F087606908B160698608A0681B
:1044F00040B1E0685C2805D3206918B1606908B153
:10450000012708E0A06830B9E06820B9206910B937
:10451000002700E00027012F0CD12169A0684B463D
:104520003246CDE9005102905146404602F0A8F8CB
:1045300003900DE067B903A8B2B24B465146CDE9EE
:104540000050404602F06AF8012801D00020039094
:104550000398C5E72DE9F04106463746FEF726F9F0
:1045600010B16FF0050410E017B96FF003040CE010
:104570003846FEF7D5FD0546042D04D00024384604
:1045800000F0FEFF01E06FF002042046BDE8F0817C
:10459000014611B90948006800E00846024652B9D0
:1045A00000BF502080F31188BFF34F8FBFF36F8F90
:1045B00000BF00BFFEE702F1340070471800002082
:1045C0002DE9F04105460E46164807681648006872
:1045D000001D00F0EDFD681C38B936B112480168C5
:1045E000091D124800F03AFE1AE07C190E480068D6
:1045F0004460BC4207D20C480168091D0C480068A1
:1046000000F012FE0CE008480168091D0948006826
:1046100000F00AFE08480068844201D2064804609F
:10462000BDE8F0812C000020180000205406002076
:10463000200000201C0000204800002010B5044687
:1046400000F018FE24480068401C234908602348F5
:10465000006840B9214804600846006801280DD16F
:1046600000F016FA0AE01E48006838B91B480068D6
:10467000C06AE16A884201D8184804601948006895
:10468000401C184908600846006860641649E06AE2
:104690000968884202D91449E06A0860E16A01EBBE
:1046A0008101124A02EB8100211D00F0D7FD00F0CC
:1046B0000BFE0B48006868B108480068C06AE16AF0
:1046C000884207D24FF0805009490860BFF34F8FEE
:1046D000BFF36F8F10BD00002800002018000020DD
:1046E000340000204400002030000020A4010020FD
:1046F00004ED00E008B500F0BDFD12480068E8B91F
:10470000114800F081FD114800F07EFD0E4810496F
:1047100008600E480F49086000200F4B0F4A102117
:1047200000900A2001F073FA064908600846006804
:1047300020B10BA10348006800F086FE00F0C4FD24
:1047400008BD00005C000020680600207C060020F8
:10475000540000205800002090060020E0060020B1
:10476000546D72510000000010B516E000F082FD9B
:104770000C48C068C468201D00F01AFD0A48006893
:10478000401E0949086009480068401E0749086042
:1047900000F09AFD204600F05FF804480068002809
:1047A000E4D110BD40060020280000202400002095
:1047B00070B504460D46206C70B1216CE068014470
:1047C000E160D4E90210884201D32168E160284603
:1047D000226CE168FBF78FFD70BD2DE9F0410446C6
:1047E0000F4615464FF00008A66B206C48B92068AC
:1047F00000282CD1A06802F069F880460020A06053
:1048000025E07DB93946226C6068FBF774FD216CA8
:10481000606808446060D4E90101884217D32068C9
:10482000606014E03946226CE068FBF764FD216C9F
:10483000E068411AE1602168E068884203D2216C97
:10484000A068411AE160022D01D106B1761E701CEC
:10485000A0634046BDE8F08110B5044694F85900C5
:1048600030B9206B00F04EFD204600F04BFD1AE001
:1048700094F85900012803D1204600F043FD12E0CE
:1048800094F85900022801D1012000E0002050B91D
:1048900000BF502080F31188BFF34F8FBFF36F8F9D
:1048A00000BF00BFFEE710BD01464A6A22B10A6B95
:1048B0001268C2F1380000E0002070470146084A43
:1048C000126812680AB9012200E000220A600A6830
:1048D00022B9034A1268D268106800E000207047CD
:1048E0005400002030B54FF47053174800F007040F
:1048F0002CB1C01D20F00700134C041B1B1B0246EB
:10490000124C22600024114D6C60D018083820F041
:1049100007000F4C206000240D4D2D686C600C4D7D
:104920002D682C601146441A4C60094C24680C60B8
:10493000084D4C682C60084D4C682C604FF00044CA
:10494000064D2C6030BD0000380E00206C000020A9
:10495000740000207C0000207800002088000020E7
:1049600000BFFFF701FF064800680128F9D94FF0A2
:10497000805004490860BFF34F8FBFF36F8FF0E79B
:10498000A401002004ED00E010B5044654B100205D
:10499000A06020600021E16000231A4619462046ED
:1049A00001F0F2F910BD2DE9F04106460D4617461B
:1049B0009846069C0DB9246000E02760E6632564F4
:1049C0000121204601F094F984F84C80BDE8F08183
:1049D0002DE9F05F82460E4690469B460A9F0C9C4E
:1049E0004FEA8801A522206BFBF797FCA8F1010094
:1049F000216B01EB800929F0070909F0070008B9CC
:104A0000012000E0002050B900BF502080F3118841
:104A1000BFF34F8FBFF36F8F00BF00BFFEE786B1BC
:104A2000002507E0715D04F134004155705D00B967
:104A300002E06D1C102DF5D300BF0021432001556D
:104A400002E0002084F83400382F00D33727E762D3
:104A5000E76400202065201D00F0E3FB04F118004E
:104A600000F0DFFB2461C7F13800A0616462002020
:104A7000606584F858005A465146484600F082FB6B
:104A800020600B9808B10B980460BDE8F09F00000F
:104A900010B5002407E004EB84010F4A02EB81000B
:104AA00000F0B2FB641C382CF5D30C4800F0ACFBD2
:104AB0000B4800F0A9FB0B4800F0A6FB0A4800F0E9
:104AC000A3FB0A4800F0A0FB044809490860044819
:104AD0000849086010BD0000A40100200406002061
:104AE000180600202C060020400600205406002056
:104AF0001C0000202000002010B50146164800E0F0
:104B0000006803688B42FBD30246436813448B4220
:104B100004D143684C682344436001460A464B680D
:104B200013440468A34211D10C4C03682468A342C7
:104B300008D04B680468646823444B6003681B68B2
:104B40000B6005E0054B1B680B6001E003680B6020
:104B5000884200D0016010BD6C000020740000206D
:104B60002DE9F04104460D4616461F464FF0000859
:104B700065602461B5420CD8F01BA169884202D35C
:104B80004FF0010811E0211D0948006800F04CFBBE
:104B90000BE0BE4204D2BD4202D34FF0010804E054
:104BA000211D0448006800F03FFB4046BDE8F0814D
:104BB000580000205400002070B5054600F05AFB54
:104BC000A86B08B9012400E0002400F07DFB20461A
:104BD00070BD70B5054600F04DFBA86BE96B8842CF
:104BE00001D1012400E0002400F06EFB204670BDDE
:104BF000F8B505460F461A480068C068C468201D0D
:104C000000F0D6FA94F8280000F00400E8B1A0699A
:104C100041192B463A462046FFF7A2FFD8B10020A3
:104C200003462A4601460090204601F0FDFF064655
:104C300056B900BF502080F31188BFF34F8FBFF3E8
:104C40006F8F00BF00BFFEE705E094F8280020F05A
:104C5000010084F828002046216A8847F8BD00003A
:104C600054000020F0B587B0A0E00398002811DAC6
:104C700004AE56B900BF502080F31188BFF34F8FA8
:104C8000BFF36F8F00BF00BFFEE7D6E90020B16819
:104C9000904700BF03980028E6DB059C606908B9CF
:104CA000012000E0002010B9201D00F081FA02A8C8
:104CB00000F0DEF8054603980A2875D2DFE800F018
:104CC00009050739416306083A4200BF00BF00BF2B
:104CD00000BF94F8280040F0010084F828000498F0
:104CE000A269811803462A462046FFF739FFF8B12A
:104CF0002046216A884794F8280000F00400B8B1E3
:104D0000002000900498A16942180023194620460B
:104D100001F08AFF074657B900BF502080F3118881
:104D2000BFF34F8FBFF36F8F00BF00BFFEE700BF21
:104D30003BE000BF94F8280020F0010084F8280030
:104D400033E000BF94F8280040F0010084F8280008
:104D50000498A061A06908B1012000E0002050B9CA
:104D600000BF502080F31188BFF34F8FBFF36F8FC8
:104D700000BF00BFFEE7A06941192B462A46204626
:104D8000FFF7EEFE11E094F8280000F0020018B9D9
:104D9000204600F0B7FA05E094F8280020F0010062
:104DA00084F8280001E0FFE700BF00BF002203A94C
:104DB0000448006801F0CEF900287FF456AF07B030
:104DC000F0BD00005C000020F8B505460C4600F080
:104DD0004DFD684600F04CF80646009820BB44B9EB
:104DE000B54206D801F062FE31462846FFF700FFC3
:104DF0001CE03CB10E480068006808B9012000E0E2
:104E000000200446A91B22460A48006800F064FB03
:104E100001F04CFE50B94FF0805007490860BFF3D5
:104E20004F8FBFF36F8F01E001F040FEF8BD00002F
:104E3000580000205C00002004ED00E00A490968E9
:104E4000096809B9012100E0002121B14FF0FF31CB
:104E5000064A116006E004490968C968C868034A3F
:104E600041681160704700001C00002048000020CD
:104E700070B5044601F078FC054607480068854295
:104E800004D200F00BF80120206001E00020206037
:104E900001480560284670BD640000202DE9F843F4
:104EA00034E025480068C068056823480068C06889
:104EB000C468201D00F07CF92046216A884794F8D8
:104EC000280000F0040008B3A0694619AE4207D9D3
:104ED00066602461211D1848006800F0A5F915E0FE
:104EE000002003462A4601460090204601F09CFE21
:104EF000074657B900BF502080F31188BFF34F8F8A
:104F0000BFF36F8F00BF00BFFEE700BF0A48006815
:104F1000006808B9012000E000200028C1D0064840
:104F2000D0F8008005480068034908600348C0F8CD
:104F30000080BDE8F88300005400002058000020E5
:104F40000E480068401C08B9012000E0002050B95C
:104F500000BF502080F31188BFF34F8FBFF36F8FD6
:104F600000BF00BFFEE700BF502080F31188BFF3F1
:104F70004F8FBFF36F8F00BF00BFFEE78C00002094
:104F800008B500BF6846FFF799FC04462046009923
:104F9000FFF71AFFFFF766FEF4E770B5044600F06E
:104FA00069F994F9455010E0606A08B9012000E001
:104FB000002038B904F1240001F02CFD18B100F0F4
:104FC0004FFB00E003E0681E45B2002DECDC00BFA3
:104FD000FF2084F8450000F077F900F04BF994F9D0
:104FE000445010E0206908B9012000E0002048B9D1
:104FF00004F1100001F00EFD08B100F031FB681E55
:1050000045B200E001E0002DECDC00BFFF2084F899
:10501000440000F059F970BD2DE9F04104464FF00D
:10502000000800F023FC4948006808B9FFF75AFC63
:10503000474800682040002870D1D4B1083404F0FB
:105040000700B0B104F00700C0F10800044404F008
:10505000070008B9012000E0002050B900BF50202F
:1050600080F31188BFF34F8FBFF36F8F00BF00BF76
:10507000FEE7002C52D03748006884424ED8364EA6
:105080003046056801E02E462D686868A04202D2CD
:1050900028680028F7D12D48006885423ED0306846
:1050A00000F10808286830606868001B102819D9CA
:1050B0002F1907F0070008B9012000E0002050B9BF
:1050C00000BF502080F31188BFF34F8FBFF36F8F65
:1050D00000BF00BFFEE76868001B78606C60384660
:1050E000FFF70AFD1B4968680968081A1949086032
:1050F0000846006819490968884203D215480068C3
:105100001649086012496868096808436860002009
:10511000286013480068401C1149086001F0C6FC73
:1051200008F0070008B9012000E0002050B900BFD6
:10513000502080F31188BFF34F8FBFF36F8F00BFF4
:1051400000BFFEE74046BDE8F0810000740000208B
:1051500088000020780000206C0000207C000020E7
:10516000800000200648006830B10549096801F157
:105170005000096D491C016001480068704700003B
:1051800018000020001F4FF080730360001F21F003
:1051900001030360001F054B036014380260001F09
:1051A0006FF002030360203870470000414F000891
:1051B00001460A69D1E901309860D1E901035860DC
:1051C0005068884201D188685060002008611068EA
:1051D000401E106010687047034B0360034B0B6068
:1051E000802313607047000080070020DC07002048
:1051F000034B0360034B0B604FF4807313607047E5
:10520000DC090020380A002000F1080141604FF05D
:10521000FF31816000F10801C1600161002101607E
:10522000704700210161704710B502460B685C1C95
:105230000CB9106907E002F1080000E0406844681A
:1052400024689C42FAD944684C604C68A16088602C
:1052500041600A611468641C146010BD42684A60B1
:1052600093688B60936859609160086103685B1C68
:105270000360704700BF502080F31188BFF34F8F49
:10528000BFF36F8F00BF0E480068401C0C490860D8
:1052900008460068012812D10A480068C0B208B95F
:1052A000012000E0002050B900BF502080F3118899
:1052B000BFF34F8FBFF36F8F00BF00BFFEE7704794
:1052C0008C00002004ED00E00D48006850B900BFDC
:1052D000502080F31188BFF34F8FBFF36F8F00BF53
:1052E00000BFFEE706480068401E05490860084602
:1052F000006820B9002080F3118800BF00BF70470C
:105300008C00002070B506463546002E44D0083D7E
:105310002C46224960680968084008B1012000E075
:10532000002050B900BF502080F31188BFF34F8F89
:10533000BFF36F8F00BF00BFFEE7206808B90120F0
:1053400000E0002050B900BF502080F31188BFF367
:105350004F8FBFF36F8F00BF00BFFEE70F4960683C
:1053600009680840C0B12068B0B90C496068096894
:105370008843606000F07AFA094960680968084467
:10538000074908602046FFF7B7FB06480068401C45
:105390000449086001F08AFB70BD0000880000200D
:1053A000780000208400002000204FF0E0210861F8
:1053B0008861064800684FF47A71B0FBF1F0401E36
:1053C0004FF0E02148610720086170471400002079
:1053D00070B5FAF749FF0446102C16D304F1E0200B
:1053E00090F8F05315480078854201DB012000E079
:1053F000002050B900BF502080F31188BFF34F8FB9
:10540000BFF36F8F00BF00BFFEE70D48006800F4D8
:10541000E0600C490968884201D8012000E00020C2
:1054200050B900BF502080F31188BFF34F8FBFF3F6
:105430006F8F00BF00BFFEE770BD0000900000202E
:105440000CED00E094000020024600200BE0084B29
:1054500053F8303033B9064B43F8301003EBC00338
:105460005A6002E0401C0828F1D300BF70470000DA
:105470006401002070B50446254655B900BF502090
:1054800080F31188BFF34F8FBFF36F8F00BF00BF52
:10549000FEE7284600F008F895F8460010B92846BF
:1054A000FFF730FF70BD0000014600200EE0094A02
:1054B00002EBC00252688A4207D10022054B43F832
:1054C000302003EBC0035A6002E0401C0828EED3F2
:1054D00000BF7047640100202DE9F04105460E46EB
:1054E00017462C46FFF7C6FE94F94400401C10B93D
:1054F000002084F8440094F94500401C10B90020B5
:1055000084F84500FFF7E0FEA06B28B93A46314623
:1055100004F1240000F0C6F82046FFF73EFDBDE888
:10552000F081000070B504460025D4B1124800682F
:1055300008B9012000E0002050B900BF502080F3DE
:105540001188BFF34F8FBFF36F8F00BF00BFFEE71F
:1055500000F08CF900212046FFF732F801F0A6FA9E
:1055600005463DB94FF0805004490860BFF34F8FA6
:10557000BFF36F8F70BD00005000002004ED00E00D
:1055800070B50546FFF776FE15B92748006800E0BC
:1055900028460446201DFFF70BFEA06A18B104F14F
:1055A0001800FFF705FE21480068401C1F490860ED
:1055B0001D480068844209D1211D1D48FFF74EFE99
:1055C0001C480068401C1B49086009E01A48006834
:1055D000401E194908602046FFF73EF9FFF72EFCF0
:1055E000FFF772FE15480068E8B10F480068844272
:1055F00019D11348006808B9012000E0002050B913
:1056000000BF502080F31188BFF34F8FBFF36F8F1F
:1056100000BF00BFFEE74FF080500A490860BFF3AB
:105620004F8FBFF36F8F70BD180000204400002023
:105630004006002024000020280000203400002024
:105640005000002004ED00E00349096801600349AF
:105650000968416070470000400000202C000020D5
:1056600001200149086070473C00002070B50446E5
:105670000D4654B900BF502080F31188BFF34F8FFF
:10568000BFF36F8F00BF00BFFEE705480168183108
:105690002046FFF7C9FD01212846FEF791FF70BDA6
:1056A0001800002070B505460E46144655B900BFD7
:1056B000502080F31188BFF34F8FBFF36F8F00BF6F
:1056C00000BFFEE70648016818312846FFF7C6FD0F
:1056D0000CB14FF0FF3621463046FEF771FF70BD2A
:1056E000180000202DE9F04706460F4634464FF0DB
:1056F0000109002E55D0206D50B900BF502080F315
:105700001188BFF34F8FBFF36F8F00BF00BFFEE75D
:10571000E06CB84201D23D4600E0E56CE06AA84288
:105720003FD0206D01283CD11F480068844201D041
:10573000012000E0002050B900BF502080F3118804
:10574000BFF34F8FBFF36F8F00BF00BFFEE7D4F8EA
:105750002C80E562A06900F0004010B9C5F1380066
:10576000A06108EB8801114A02EB8101606988425F
:1057700001D1012000E0002098B1201DFFF718FDA5
:105780000B49E06A0968884202D90949E06A086061
:10579000E16A01EB8101054A02EB8100211DFFF75F
:1057A0005DFDBDE8F087000018000020A401002086
:1057B0003000002010B586B000200590049003AAA8
:1057C00004A905A8FFF708FD0022DDE9041013462F
:1057D000CDE9002102901EA11F48039A00F050FF5E
:1057E0001E4908600846006808B1012400E0002452
:1057F000012C02D101F0DCF90446012C15D100BFC7
:10580000502080F31188BFF34F8FBFF36F8F00BF1D
:105810004FF0FF3012490860012012490860002053
:105820001149086000F072F810E0601C08B1012016
:1058300000E0002050B900BF502080F31188BFF372
:105840004F8FBFF36F8F00BF00BFFEE706B010BDE4
:1058500049444C4500000000614900084C0000200C
:1058600048000020340000202C000020024800687E
:10587000401C014908607047500000201E48006825
:1058800018B101201D49086034E000201B49086060
:105890001B4801680CE051B900BF502080F311880B
:1058A000BFF34F8FBFF36F8F00BF00BFFEE7491EEE
:1058B00001EB8100134A52F8200008B9012000E0F2
:1058C00000200028E7D101EB81020E4B03EB8200A0
:1058D00042685268426000F108024368934202D174
:1058E0004268526842604268D268074B1A600448B6
:1058F000016000BF70470000500000203C00002005
:1059000030000020A4010020180000201CB55248DF
:1059100000685249884201D0012000E0002050B9BF
:1059200000BF502080F31188BFF34F8FBFF36F8FFC
:1059300000BF00BFFEE7484800684849491E88424A
:1059400001D0012000E0002050B900BF502080F3BA
:105950001188BFF34F8FBFF36F8F00BF00BFFEE70B
:105960003F49084600780190FF200A46107008461B
:10597000007800909DF8000000F0F0009DF80020F5
:10598000904201D1012000E0002050B900BF50201A
:1059900080F31188BFF34F8FBFF36F8F00BF00BF3D
:1059A000FEE79DF8000000F050002E4A107007201E
:1059B0002D4A106009E02C480068401E2A4A1060F9
:1059C0009DF800004006000E00909DF8000000F0D9
:1059D00080008028EFD024480068C0F10700042828
:1059E00001D1012000E0002050B900BF502080F319
:1059F0001188BFF34F8FBFF36F8F00BF00BFFEE76B
:105A0000194800680002184A10601046008800F427
:105A1000E0601060124A019810700F482030006852
:105A200040F470000C49203108600846006840F0DE
:105A300070400860FFF7B8FC00200C490860FAF7D6
:105A4000DBFB0B48006840F0404009490860FAF76A
:105A5000BFFB00201CBD000000ED00E071C20F4143
:105A600000E400E090000020940000208C00002062
:105A700034EF00E010B500BF502080F31188BFF371
:105A80004F8FBFF36F8F00BF00F07EFE18B14FF055
:105A900080500449086000BF002080F3118800BFD7
:105AA00010BD000004ED00E070B505460E460DB1D6
:105AB000012000E0002050B900BF502080F3118881
:105AC000BFF34F8FBFF36F8F00BF00BFFEE7AE4243
:105AD00001D8012000E0002050B900BF502080F321
