:020000040800F2
:10000000B071012071020008852F0008EB2C000858
:10001000812F000865090008C13C000800000000AD
:10002000000000000000000000000000B101000816
:10003000930A0008000000000D020008E9330008E0
:100040008B0200088B0200088B0200088B0200085C
:100050008B0200088B0200088B0200088B0200084C
:10006000950A00088B0200088B0200088B0200082A
:100070008B0200088B0200088B0200088B0200082C
:100080008B0200088B0200088B02000800000000B1
:100090000000000000000000000000008B020008CB
:1000A0008B0200088B0200088B0200088B020008FC
:1000B000C93400088B0200088B0200088B0200087C
:1000C0008B0200088B0200088B0200088B020008DC
:1000D0008B020008B13C00088B0200080000000001
:1000E0008B0200088B0200088B0200080000000051
:1000F0000000000000000000000000008B0200086B
:10010000000000008B0200088B0200088B02000830
:1001100000000000000000000000000000000000DF
:100120008B0200088B020008690900088B02000896
:100130008B0200080000000000000000000000002A
:100140000000000000000000000000008B0200081A
:100150008B0200088B020008790900088B02000856
:100160008B0200088B020008000000000000000065
:10017000000000000000000000000000000000007F
:10018000000000008B0200080000000000000000DA
:100190008B0200088B020008DFF810D000F036FB5D
:1001A0000048004753B00208AFF30080B07101204F
:1001B0002C4B19680868B0E8F04F80F30988BFF34A
:1001C0006F8F4FF0000080F311887047000000002F
:1001D00008480068006880F308884FF0000080F34A
:1001E000148862B661B6BFF34F8FBFF36F8F00DF25
:1001F00000BF00BF08ED00E0DFF80C00016841F42B
:1002000070010160704700BF88ED00E0EFF30980E6
:10021000BFF36F8F134B1A681EF0100F08BF20ED4D
:10022000108A20E9F04F106009B44FF0500080F3BD
:100230001188BFF34F8FBFF36F8F3CF0B9F94FF0C8
:10024000000080F3118809BC19680868B0E8F04F15
:100250001EF0100F08BFB0EC108A80F30988BFF3BE
:100260006F8F704714000020EFF305807047000087
:100270000648804706480047FEE7FEE7FEE7FEE740
:10028000FEE7FEE7FEE7FEE7FEE7FEE7B53400081F
:10029000990100082DE9F05F0546002092469B4633
:1002A00088460646814640241BE02846414647468C
:1002B000224600F0E2F853465A46C01A914110D344
:1002C00011461846224600F0C9F82D1A67EB0108BE
:1002D0004F4622460120002100F0C0F817EB00092C
:1002E0004E41201EA4F10104DFDC484631462A4677
:1002F0004346BDE8F09F2DE9F0410024061B25464A
:1003000071F1000605DA01240027D0EB070067EB46
:100310000101161E73F1000605DA0027D2EB070271
:10032000012567EB0303FFF7B5FF86460E46174628
:100330009C46AC4204D00025D0EB050E65EB0106CF
:1003400024B10020D2EB000760EB030C704631466D
:100350003A466346BDE8F08140EA01039B0703D0BB
:1003600009E008C9121F08C0042AFAD203E011F8F4
:10037000013B00F8013B521EF9D27047D2B201E0B6
:1003800000F8012B491EFBD270470022F6E710B59A
:1003900013460A4604461946FFF7F0FF204610BDF3
:1003A00030B505462A460B4612F8010B13F8014BEF
:1003B00008B1A042F8D01CB1002802D06D1CF1E7B2
:1003C000284630BD421C10F8011B0029FBD1801AC1
:1003D000704730B504460020034600E05B1C9342A2
:1003E00003D2E05CCD5C401BF8D030BD30B5054693
:1003F0000020034600E05B1C934205D2EC5CC85C25
:10040000201A01D1002CF6D130BD00F0004230F0AE
:1004100000400AD0C10D01F56071C0F3160042EA38
:100420000151C20840071143704700200146704740
:1004300030B50B46014600202022012409E021FAB4
:1004400002F59D4205D303FA02F5491B04FA02F5B1
:100450002844151EA2F10102F1DC30BD202A04DB84
:10046000203A00FA02F1002070479140C2F12003C7
:1004700020FA03F3194390407047202A04DB203A06
:1004800021FA02F00021704721FA02F3D040C2F1B4
:10049000200291400843194670472DE9FE4F8046DF
:1004A00081EA0300C00F0C46009021F0004123F0C8
:1004B0000045B8EB0200A94105D2404621469046CE
:1004C0001C460B46024623F00040104347D0270D40
:1004D000C7F30A00C3F30A510290401A0190402862
:1004E0006BDAC3F3130040F4801B0098924620B1EE
:1004F0000023D2EB030A63EB0B0B01985946C0F1C2
:1005000040025046FFF7AAFF06460D4650465946A0
:10051000019A00F08DF910EB08006141002487EA90
:10052000115284EAE7731A4340D0009A62B3019AE9
:10053000012A4FEA075215DC001B61EB02014FF064
:10054000004202EA0752CDE90042001C41F5801149
:1005500032462B4600F08DF903B0BDE8F08F4046DF
:100560002146F9E7001B61EB0201001C41F58013F5
:1005700000185B412018A2F5001747EB030140EA81
:10058000D570B6196D4111E06D084FEA360645EA9F
:10059000C0754FEA0752001B61EB0201001C41F5D8
:1005A000801149084FEA30000019514132462B466C
:1005B00003B0BDE8F04F00F04DB9009801224000B3
:1005C0000023D0EB020263EBE073009821464FEA70
:1005D000E074B8EB000061EB0401E9E783F000434D
:1005E0005BE781F0004158E72DE9FE4F81EA030403
:1005F00004F0004421F0004100944FF0000B23F080
:10060000004350EA01045ED052EA03045BD0C3F316
:100610000A54C1F30A552C44A4F2F3340194A0FB0C
:100620000254C1F3130141F48011C3F3130343F4E3
:10063000801301FB024400FB034E840A970A44EA3C
:10064000815447EA8357A4FB076802958D0A05FB8E
:1006500007854FEA932C04FB0C542705029D4FEAB3
:10066000065847EA1637B5EB08056EEB070C870E00
:10067000920E47EA811742EA8312A7FB0201B6EB0A
:100680000B0164EB00042B0D43EA0C335E1844EBC2
:100690001C50DA465146E7FB0201C5F313044FEA4A
:1006A0000B3343EA14534FEA0432019C43EA060336
:1006B000A4F10C040294009CCDE900B400F0D9F838
:1006C00003B0BDE8F08F00200146F9E72DE9F04DB9
:1006D00081EA030404F0004B21F0004514464FF07A
:1006E000000A23F0004150EA050220D054EA01023A
:1006F0001DD0C5F30A570246C5F31303C1F3130017
:10070000C1F30A5640F4801543F48013A7EB0608A2
:10071000101BD64608F2FD3873EB050002D308F132
:10072000010801E092185B41B8F1000F03DA0020E4
:100730000146BDE8F08D00204FF480110646844646
:100740000EE0171B73EB050705D3121B63EB0503C4
:1007500006434CEA010C49084FEA300092185B410D
:1007600050EA0107EDD152EA030012D082EA0400F8
:1007700083EA0501084305D0101BAB4106D20122D4
:10078000002306E000224FF0004302E06FF0010278
:1007900053101AEB06004CEB085110EB0A0041EB2A
:1007A0000B01BDE8F04D00F055B8C1F30A52C1F39A
:1007B000130140F2FF3341F480119A4202DA002023
:1007C0000146704740F233439A42A2F2334202DCC0
:1007D0005242FFF752BEFFF741BE000030B5041E83
:1007E00071F1000404DB4FF00044404264EB01016E
:1007F000141E73F1000405DB1C464FF00043524207
:1008000063EB0403994208BF904230BD064C074D8C
:1008100006E0E06840F0010394E8070098471034D0
:10082000AC42F6D3FFF7BCFC88230508A8230508D3
:10083000202A06DBCB17203A41FA02F043EAE073A4
:1008400006E041FA02F3D040C2F120029140084391
:100850001946704710B5141E73F1000408DA401CE5
:1008600041F1000192185B411A4301D120F00100CF
:1008700010BD2DE9F04D92469B4611B1B1FA81F2BF
:1008800002E0B0FA80F220329046FFF7E7FD04461E
:100890000F4640EA0A0041EA0B0153465A46084314
:1008A00013D0114653EA010019D0C8F14002504656
:1008B000FFF7E3FD05460E46504659464246FFF710
:1008C000CDFD084305D0012004E020463946BDE8AF
:1008D000F08D0020054346EAE0762C4337430A9822
:1008E0006305E40AA0EB08000022FD0A44EA47542D
:1008F0000A3002D500200146E9E7010510196941D7
:10090000DDE9084500196941BDE8F04DA2E770B581
:100910008C1810F8015B15F0070301D110F8013BAA
:100920002A1106D110F8012B03E010F8016B01F831
:10093000016B5B1EF9D12B0705D40023521E0DD489
:1009400001F8013BFAE710F8013BCB1A921C03E0D7
:1009500013F8015B01F8015B521EF9D5A142D8D30F
:10096000002070BD00BFFEE710B5024800F040F95E
:1009700010BD00005802002010B5024800F038F900
:1009800010BD0000B8020020014608781038182376
:10099000B0FBF3F20848805CC865032A05D90868F3
:1009A0006FF30900001D886503E008686FF3090014
:1009B0008865886D704700008CDD030801460020C3
:1009C0008A6A8B69CBB932B1012A0DD0022A03D0D1
:1009D000032A10D10EE000BFCB6A03F08073B3F19D
:1009E000807F00D1012007E0CB6AB3F1C07F00D146
:1009F000012001E000E000BF34E08B69B3F5005F47
:100A00001AD132B1012A07D0022A03D0032A11D108
:100A10000AE000BF01200EE0CB6A03F08073B3F15F
:100A2000807F00D1012006E0CB6AB3F1C07F00D106
:100A3000012000E000BF15E032B1012A05D0022AF2
:100A400004D0032A0CD103E000BF00BF012008E05E
:100A5000CB6A03F08073B3F1807F00D1012000E006
:100A600000BF00BF704730B50468246824F48024B8
:100A700005682C60046863608468402C04D10468B5
:100A8000A2600468E16003E00468A1600468E260B9
:100A900030BD704710B5042000F030FB10BD72B6B9
:100AA00000BFFEE770B50446A56D00F027FC0646C2
:100AB00094F83500022808D08020606500BF00202F
:100AC00084F8340000BF012070BD2068006820F069
:100AD0001600216808602068406920F080002168C5
:100AE0004861206C08B9A06C28B12068006820F02B
:100AF0000800216808602068006820F00100216873
:100B0000086010E000F0FAFB801B05280BD92020BC
:100B10006065032084F8350000BF002084F83400AD
:100B200000BF0320D0E72068006800F00100002823
:100B3000E8D194F85C103F208840A860012084F838
:100B4000350000BF002084F8340000BF00BFBBE7C1
:100B5000014691F83500022803D080204865012025
:100B60007047052081F835000868006820F0010012
:100B70000A6810600020F3E770B504460CB9012044
:100B800070BD94F83500022800D1F9E720680068AC
:100B900020F00100216808600020216808602168B9
:100BA0004860216888602168C86021680861212048
:100BB000216848612046FFF7E7FE05460020E06314
:100BC00020646064A064E064206594F85C103F20B9
:100BD0008840A8600020606584F8350000BF84F874
:100BE000340000BF00BFCBE70146486D70470000EE
:100BF000F8B50446002000908C4800684FF4165168
:100C0000B0FBF1F7A56D2E6894F85C1008208840C1
:100C1000304098B12068006800F0040070B120688E
:100C2000006820F004002168086094F85C10082037
:100C30008840A860606D40F00100606594F85C1029
:100C400001208840304068B12068406900F0800091
:100C500040B194F85C1001208840A860606D40F0BD
:100C60000200606594F85C1004208840304068B150
:100C70002068006800F0020040B194F85C10042085
:100C80008840A860606D40F00400606594F85C10D6
:100C900010208840304078B32068006800F00800D9
:100CA00050B394F85C1010208840A8602068006859
:100CB00000F4802080B12068006800F4002028B98A
:100CC000206CC8B12046216C884715E0A06C98B113
:100CD0002046A16C88470FE02068006800F480700F
:100CE00028B92068006820F0080021680860206C9E
:100CF00010B12046216C884794F85C102020884071
:100D00003040002865D02068006800F010000028FE
:100D10005FD094F85C1020208840A86094F83500DB
:100D2000052828D12068006820F016002168086096
:100D30002068406920F0800021684861206C08B973
:100D4000A06C28B12068006820F0080021680860C5
:100D500094F85C103F208840A860012084F835009A
:100D600000BF002084F8340000BF206D10B1204681
:100D7000216D8847F8BD2068006800F4802080B1AC
:100D80002068006800F4002028B9606C10B120468B
:100D9000616C88471DE0E06BD8B12046E16B884765
:100DA00017E02068006800F4807068B92068006867
:100DB00020F0100021680860012084F8350000BF91
:100DC000002084F8340000BFE06B10B12046E16BD6
:100DD0008847606D38B3606D00F00100F0B1052008
:100DE00084F835002068006820F001002168086060
:100DF00000BF0098401C0090B84200D905E0206870
:100E0000006800F001000028F3D100BF012084F841
:100E1000350000BF002084F8340000BFE06C10B142
:100E20002046E16C884700BFA4E7000010000020C6
:100E30002DE9F0410446002500F060FA074614B998
:100E40000120BDE8F081606A00B100BF022084F893
:100E5000350000BF002084F8340000BF206800681F
:100E600020F00100216808600AE000F047FAC01B8A
:100E7000052805D920206065032084F83500E0E7C7
:100E80002068006800F001000028EED120680568A5
:100E900021480540D4E901010843E168084321697C
:100EA000084361690843A1690843E1690843216A6D
:100EB00008430543606A042803D1D4E90B010843C1
:100EC0000543206805602068456925F00705606ACC
:100ED0000543606A04280DD1A06A0543E06A48B161
:100EE0002046FFF76BFD28B140206065012084F8A3
:100EF0003500A6E7206845612046FFF745FD064618
:100F000094F85C103F208840B060002060650120AC
:100F100084F83500002094E73F8010F02DE9F04779
:100F200004460D4616461F464FF00008D4F8589068
:100F300000BF94F83400012802D10220BDE8F087F8
:100F4000012084F8340000BF94F83500012825D131
:100F5000022084F83500002060653B463246294671
:100F60002046FFF780FD94F85C103F208840C9F8C8
:100F700008002068006840F0160021680860206CB6
:100F800028B12068006840F00800216808602068E7
:100F9000006840F001002168086006E000BF002002
:100FA00084F8340000BF4FF002084046C6E7000056
:100FB000F0B50C46002500220023002183E0012625
:100FC00006FA01F504EA0502AA427BD1404E8F08D9
:100FD00056F827308E07370F0F26BE4033403D4E60
:100FE000B04201D1002614E03B4EB04201D10126AF
:100FF0000FE03A4EB04201D102260AE0384EB0422C
:1010000001D1032605E0374EB04201D1042600E0AD
:1010100007268F073F0FBE409E4224D1324E3668CE
:101020009643314F3E603E1D366896433F1D3E60FD
:101030002D4E0C36366896432B4F0C373E603E1FC4
:10104000366896433F1F3E608E07370F0F2606FA1D
:1010500007F31F4E8F0856F827609E431C4F4FEA38
:10106000910C47F82C6006684FEA410C032707FAF9
:101070000CF7BE430660CF0800F1200656F8276043
:101080004F074FEAD76C0F2707FA0CF7BE434FEA1A
:10109000D10C00F1200747F82C60C6684FEA410CDC
:1010A000032707FA0CF7BE43C660466801278F4046
:1010B000BE43466086684FEA410C032707FA0CF7E7
:1010C000BE438660491C1029FFF479AFF0BD0000D3
:1010D00008380140000002400004024000080240BD
:1010E000000C024000100240003C014010B50446D4
:1010F000042C01D107F0E2FA10BD000010B504463F
:1011000004480068204020B1024804602046FFF7F0
:10111000EDFF10BD143C0140F8B502460B4600251A
:10112000002400200021C7E0012606FA01F51E6810
:1011300006EA0504AC4274D11E7906F00306012EBE
:1011400004D01E7906F00306022E13D190684F00DA
:101150000326BE40B0434F00DE68BE40304390607F
:10116000506801268E40B0431E79C6F300168E40AB
:10117000304350601E7906F00306032E09D0D06874
:101180004F000326BE40B0434F009E68BE40304330
:10119000D0601E7906F00306022E13D1CF0802F1AB
:1011A000200656F827004E07F70E0F26BE40B04324
:1011B0004F07FF0E1E69BE403043CF0802F12006E4
:1011C00046F8270010684F000326BE40B0431E7942
:1011D00006F003064F00BE40304310605E6806F420
:1011E0004036002E67D000BF00260096344E366889
:1011F00046F48046324F3E603E46366806F48046EE
:10120000009600BF00BF2F4E8F0856F827008E07AC
:10121000370F0F26BE40B0432B4EB24202D10026FC
:1012200015E048E0294EB24201D101260FE0284ED8
:10123000B24201D102260AE0264EB24201D1032673
:1012400005E0254EB24201D1042600E007268F07B3
:101250003F0FBE4030431B4E8F0846F827001F4EFD
:101260003068A0435E6806F4801606B120431B4E2A
:101270003060361D3068A0435E6806F4001606B183
:101280002043164E361D3060144E361F3068A04382
:101290005E6806F4003606B12043104E361F3060FB
:1012A000361F3068A0435E6806F4803606B12043DE
:1012B0000A4E083E3060491C1029FFF435AFF8BDD6
:1012C0004438024008380140000002400004024057
:1012D00000080240000C024000100240083C01409F
:1012E000024613690B400BB1012000E0002070475B
:1012F0000AB1816101E00B04836170470148006815
:101300007047000004000020034800680349097882
:101310000844014908607047040000200C000020C8
:1013200010B50D48006840F400700B49086008468D
:10133000006840F4806008600846006840F48070EF
:101340000860032000F0FEF80F2000F007F800F01E
:101350005FF8002010BD0000003C02402DE9F04184
:1013600088B004460027B84600BF002001902448FA
:10137000006840F00100224908600846006800F05B
:101380000100019000BF00BF02A903A800F0B0F95E
:10139000069F1FB900F0D4F9054602E000F0D0F92D
:1013A00045001848B5FBF0F0A0F101084FF080406F
:1013B0001549086040F2E7311348C160C0F8048065
:1013C000002101618160816100F005FE064696B949
:1013D0000D4800F035FE06466EB91C2000F064F89A
:1013E000102C07D2002221461C2000F06DF807487F
:1013F000046000E00126304608B0BDE8F08100003E
:101400004038024040420F0018030020080000202E
:1014100008B500BF002000901148006840F48040EB
:101420000F4908600846006800F48040009000BF43
:1014300000BF00BF00200090081F006840F08050EF
:10144000091F08600846006800F08050009000BF47
:1014500000BF00220F21901E00F036F808BD0000EA
:101460004438024010B501460846002817DB00F05A
:101470001F0301229A400B4B440943F8242000BF6C
:1014800000BF00BFBFF34F8F00BF00BF00BF00BF52
:1014900000BF00BFBFF36F8F00BF00BF00BF00BF22
:1014A00010BD000080E100E001460846002809DB8D
:1014B00000F01F0301229A4043099B0003F1E0233F
:1014C000C3F8002100BF70472DE9F05F80460D464C
:1014D0001646002702F0E6FD074639462A463346FF
:1014E00001F00700C0F1070ABAF1040F02D94FF06A
:1014F000040A01E0C0F1070AD14600F1040ABAF17A
:10150000070F02D24FF0000A01E0A0F1030AD4460F
:101510004FF0010A0AFA09FAAAF1010A0AEA020AD4
:101520000AFA0CFA4FF0010B0BFA0CFBABF1010BB2
:101530000BEA030B4AEA0B042146404602F0BAFDCF
:10154000BDE8F09F00BF00F00702064B19684FF698
:10155000FF031940044B0B4343EA0221014B19607E
:1015600000BF70470CED00E00000FA0570B50446BE
:101570000D460CB9012070BD5848006800F0070006
:10158000A84209D255490D700846006800F00700CE
:10159000A84201D00120EEE7207800F002000228E6
:1015A0001DD1207800F00400042805D14C480068C3
:1015B00040F4E0504A490860207800F0080008280C
:1015C00005D14748006840F46040454908604448F8
:1015D000006820F0F000A1680843414908602078C5
:1015E00000F00100A8B36068012807D13C48083822
:1015F0000068C0F34040B8B90120BCE76068022829
:1016000002D06068032807D1354808380068C0F365
:10161000406048B90120AEE7314808380068C0F39F
:10162000400008B90120A6E72D48006820F003001B
:10163000616808432A490860FFF760FE064609E032
:10164000FFF75CFE801B41F28831884202D90320FB
:1016500091E707E02248006800F00C006168B0EBF9
:10166000810FEDD11D48006800F00700A84209D99C
:101670001A490D700846006800F00700A84201D022
:10168000012078E7207800F00400042807D11448EE
:10169000006820F4E050E1680843114908602078B0
:1016A00000F00800082808D10D48006820F46040C8
:1016B000216940EAC1000A49086000F061F8084960
:1016C0000968C1F30311074A515CC8400649086024
:1016D00006480068FFF742FE00204CE7003C02404D
:1016E0000838024094DD03081000002008000020A4
:1016F0000F2202600D4A126802F0030242600B4A98
:10170000126802F0F0028260084A126802F4E052A5
:10171000C260064A126802F46042D2080261044ABA
:10172000126802F007020A607047000008380240A1
:10173000003C024001480068704700001000002093
:1017400000B5FFF7F7FF04490968C1F38221034A96
:10175000515CC84000BD000008380240A4DD030809
:1017600000B5FFF7E7FF04490968C1F34231034AB6
:10177000515CC84000BD000008380240A4DD0308E9
:101780002DE9F047002400250026A14625480068E1
:1017900000F00C0020B1042805D008283AD105E05B
:1017A000DFF8849039E0DFF8849036E01D48001FB0
:1017B000006800F03F041B48001F006800F4800030
:1017C00078B11A481749091F0968C1F38811A0FBAD
:1017D00001700146224600233846FEF75BFD0546B0
:1017E0000EE011480F49091F0968C1F38811A0FBD9
:1017F00001700146224600233846FEF74BFD0546A0
:101800000848001F0068C0F30140401C4600B5FBBB
:10181000F6F902E0DFF8109000BF00BF4846BDE8CF
:10182000F0870000083802400024F40040787D0171
:10183000F8B504460CB90120F8BD207800F001008D
:10184000002874D0F948006800F00C0004280DD07E
:10185000F648006800F00C00082813D1F348001F78
:10186000006800F48000B0F5800F0BD1EF48083815
:101870000068C0F34040002859D06068002856D165
:101880000120D9E700BF6068B0F5803F08D1E74884
:101890000838006840F48030E449083908601EE0E8
:1018A0006068B0F5A02F0DD1E0480838006840F41A
:1018B0008020DE49083908600846006840F480301E
:1018C00008600CE0D9480838006820F48030D74917
:1018D000083908600846006820F48020086000BFCE
:1018E000606890B1FFF70AFD054606E0FFF706FDC8
:1018F000401B642801D903209EE7CC4808380068C3
:10190000C0F340400028F1D011E0FFF7F7FC054696
:1019100006E0FFF7F3FC401B642801D903208BE7A6
:10192000C24808380068C0F340400028F1D1207850
:1019300000F0020002285FD1BC48006800F00C00F3
:1019400058B1BA48006800F00C0008281CD1B7480C
:10195000001F006800F48000B0B9B448083800687F
:10196000C0F3400020B1E068012801D0012063E706
:10197000AE480838006820F0F800216940EAC1004C
:10198000AA490839086037E0E06800B30120A84997
:101990000860FFF7B3FC054606E0FFF7AFFC401B0D
:1019A000022801D9032047E7A04808380068C0F39F
:1019B00040000028F1D09D480838006820F0F80069
:1019C000216940EAC10099490839086014E0002003
:1019D00097490860FFF792FC054606E0FFF78EFC8A
:1019E000401B022801D9032026E7904808380068E8
:1019F000C0F340000028F1D1207800F0080008284A
:101A00002CD16069A8B101208A490860FFF776FCF3
:101A1000054606E0FFF772FC401B022801D90320AF
:101A20000AE782486C300068C0F340000028F1D01B
:101A300014E000207F490860FFF760FC054606E0DF
:101A4000FFF75CFC401B022801D90320F4E677482D
:101A50006C300068C0F340000028F1D1207800F01D
:101A60000400042870D1002770483830006800F066
:101A7000805090B900BF002000906C48383000685A
:101A800040F080506949383108600846006800F02D
:101A90008050009000BF00BF01276748006800F435
:101AA0008070B0B96448006840F480706249086092
:101AB000FFF724FC054606E0FFF720FC401B022848
:101AC00001D90320B8E65C48006800F48070002863
:101AD000F2D000BFA068012808D1544868300068DF
:101AE00040F001005149683108601DE0A0680528F8
:101AF0000DD14E486830006840F004004B49683111
:101B000008600846006840F0010008600CE04748A3
:101B10006830006820F001004449683108600846D8
:101B2000006820F00400086000BFA068A8B1FFF7BB
:101B3000E5FB054609E0FFF7E1FB401B41F2883178
:101B4000884202D9032077E626E0384868300068EA
:101B5000C0F340000028EED013E0FFF7CFFB0546AE
:101B600008E0FFF7CBFB401B41F28831884201D9E6
:101B7000032061E62D4868300068C0F3400000286B
:101B8000EFD1012F07D129483830006820F080506C
:101B900026493831086000BFA069002845D0234895
:101BA000006800F00C0008285DD0A069022845D12B
:101BB00000201F490866FFF7A1FB054606E0FFF776
:101BC0009DFB401B022801D9032035E61748083841
:101BD0000068C0F340600028F1D1D4E90701084350
:101BE000616A40EA81110122A06AC2EB500041EA19
:101BF00000412C20005D41EA00600C49091F08608B
:101C000001200B490866FFF779FB054606E0FFF760
:101C100075FB401B022801D903200DE60348083854
:101C20000068C0F340600028F1D049E00838024065
:101C300000004742800E47420070004000202149CA
:101C40000866FFF75BFB054606E0FFF757FB401B06
:101C5000022801D90320EFE51B480068C0F340606B
:101C60000028F2D12CE0A069012800D1E4E5164853
:101C7000001D0668A069012820D006F48001E069F3
:101C800081421BD106F03F01206A814216D147F6FE
:101C9000C0703040616AB0EB811F0FD106F4403153
:101CA0000122A06AC2EB5000B1EB004F06D106F052
:101CB00070612C20005DB1EB006F01D00120BBE50D
:101CC0000020B9E50000474200380240014691F883
:101CD0005100704710B504460CB9012010BD606A70
:101CE00038B96068B0F5827F00D105E00021E1617C
:101CF00002E00021216161610021A16294F851009C
:101D000028B9002084F85000204600F047F802204F
:101D100084F851002068006820F0400021680860C5
:101D2000A08800F48270218901F404410843A1894C
:101D300001F400610843217C01F002010843217D88
:101D400001F001010843218B01F400710843217F58
:101D500001F0380108432021095D01F080010843AA
:101D6000218D01F400510843216808600421A06915
:101D700001EA104094F8241001F010010843216892
:101D800048602068C06920F400602168C8610020B4
:101D90006065012084F8510000209FE710B586B0EF
:101DA0000446142101A8FEF7F0FA1B492068884276
:101DB0002FD100BF002000901848006840F48050E8
:101DC000164908600846006800F48050009000BF83
:101DD00000BF00BF0020009010481438006840F099
:101DE00001000E49143908600846006800F001003F
:101DF000009000BF00BFA0200190022002900020B0
:101E00000390032004900520059001A90448FFF7E2
:101E100083F906B010BD0000003001404438024094
:101E2000000002402DE9F84F0446884616461D463C
:101E30004FF0000A00BF94F85000012802D10220A0
:101E4000BDE8F88F012084F8500000BFFFF756FA74
:101E50000746B14694F85100012802D04FF0020A1B
:101E6000ADE0B8F1000F00D016B94FF0010AA6E0BE
:101E7000032084F8510000206065C4F83080A686F5
:101E8000E686A063A087E08760642064A068B0F560
:101E9000004F0BD12068006820F0400021680860E6
:101EA0002068006840F4804021680860206800686D
:101EB00000F04000402805D02068006840F0400055
:101EC00021680860E068B0F5006F2FD1606810B13C
:101ED000B9F1010F09D1206B00882168C860206B1F
:101EE000801C2063E08E401EE0861BE02068806836
:101EF00000F0020002280AD1206B00882168C86027
:101F0000206B801C2063E08E401EE0860AE0FFF715
:101F1000F5F9C01BA84201D3681C00B915B94FF0F0
:101F2000030A4CE0E08E0028E0D12EE0606810B19A
:101F3000B9F1010F09D1206B007821680873206B7B
:101F4000401C2063E08E401EE0861BE02068806815
:101F500000F0020002280AD1206B00782168087383
:101F6000206B401C2063E08E401EE0860AE0FFF7F5
:101F7000C5F9C01BA84201D3681C00B915B94FF0C0
:101F8000030A1CE0E08E0028E0D13A4629462046AC
:101F900001F086F908B120206065A06850B900BF43
:101FA000002000902068C068009020688068009041
:101FB00000BF00BF606D08B14FF0010A00BF0120F3
:101FC00084F8510000BF002084F8500000BF504644
:101FD00036E77047704710B504460CB9012010BDB4
:101FE00094F83D0028B9002084F83C00204600F019
:101FF00025F8022084F83D00211D206801F06CFACC
:10200000012084F8460000BF84F83E0001213F20F3
:102010000155402001554120015500BF00BF01205E
:1020200084F84200432001554420015545200155C4
:1020300000BF012084F83D000020D0E77047000079
:10204000014691F83D00012801D00120704702208F
:1020500081F83D000868C06840F001000B68D86056
:10206000164B0868984213D00868B0F1804F0FD023
:10207000134B086898420BD0124B0868984207D05F
:10208000114B0868984203D0104B086898420CD155
:102090000868806800F00702062A0CD0086800680B
:1020A00040F001000B68186005E00868006840F027
:1020B00001000B6818600020C8E700000000014024
:1020C0000004004000080040000C004000400140B7
:1020D000704710B5044620680069C0F34000D8B1CD
:1020E0002068C068C0F34000B0B16FF00200216802
:1020F0000861012020772068806900F0030018B192
:102100002046FFF7E5FF05E0204600F0ADF8204649
:1021100000F0ABF80020207720680069C0F3800051
:10212000D8B12068C068C0F38000B0B16FF004007F
:1021300021680861022020772068806900F44070DF
:1021400018B12046FFF7C4FF05E0204600F08CF8E8
:10215000204600F08AF80020207720680069C0F34C
:10216000C000D8B12068C068C0F3C000B0B16FF043
:10217000080021680861042020772068C06900F009
:10218000030018B12046FFF7A3FF05E0204600F04A
:102190006BF8204600F069F800202077206800697D
:1021A000C0F30010D8B12068C068C0F30010B0B10F
:1021B0006FF0100021680861082020772068C0694E
:1021C00000F4407018B12046FFF782FF05E020467A
:1021D00000F04AF8204600F048F8002020772068F8
:1021E000006900F0010058B12068C06800F00100EB
:1021F00030B16FF0010021680861204600F036F828
:1022000020680069C0F3C01058B12068C068C0F3EE
:10221000C01030B16FF08000216808612046FFF7E0
:10222000D8FE20680069C0F3801058B12068C068EB
:10223000C0F3801030B16FF0400021680861204683
:1022400000F01DF820680069C0F3401058B1206804
:10225000C068C0F3401030B16FF020002168086101
:102260002046FFF7B7FE10BD7047704710B5044613
:102270002068B0F1804F01D1FFF746F810BD7047DC
:10228000F8B504460E46174694F83E00202836D18D
:1022900006B10FB90120F8BD00BF94F83C00012839
:1022A00001D10220F7E7012084F83C0000BF206341
:1022B0003A463146204601F019FC0546EDB9206B3F
:1022C000012819D100BF002000902068006800900C
:1022D00020684068009000BF00BF00BF00BF2168B9
:1022E0000C3151E8001F41F0100021680C3141E829
:1022F0000002002AF3D100E001252846CBE70220A6
:10230000C9E7000070B504460D4604480068A042C5
:1023100003D12946014836F075FA70BDFC00002053
:1023200010B5044600BF00BF21680C3151E8001F02
:1023300021F4907021680C3141E80002002AF3D1A9
:1023400000BF00BF00BF2168143151E8001F21F019
:1023500001002168143141E80002002AF3D100BFD6
:10236000206B01280ED100BF00BF21680C3151E85D
:10237000001F21F0100021680C3141E80002002A02
:10238000F3D100BF2068406900F04000402820D110
:1023900000BF00BF2168143151E8001F21F0400048
:1023A0002168143141E80002002AF3D100BFA06B7C
:1023B00078B10020A16B0865A06BFEF773FB40B1FC
:1023C000A06BFEF711FC202803D11020206403200D
:1023D00010BD0020E085202084F83E00002020630E
:1023E00000BFF5E710B5044600BF00BF21680C31FF
:1023F00051E8001F21F0C00021680C3141E80002C3
:10240000002AF3D100BF2068406900F080008028D6
:1024100020D100BF00BF2168143151E8001F21F016
:1024200080002168143141E80002002AF3D100BF86
:10243000606B78B10020616B0865606BFEF732FB62
:1024400040B1606BFEF7D0FB202803D11020206440
:10245000032010BD0020E084202084F83D000020EF
:10246000F7E710B504460CB9012010BD242084F80C
:102470003D002068C06820F400502168C8602046F4
:1024800000F026FA0020206484F83D0084F83E0025
:10249000206300BF84F83C0000BF00BFE5E70000F8
:1024A0007FB5044634480068A04202D132484068F3
:1024B00000B97FBD3048007D012825D12E4890F815
:1024C0002000012820D1206C00F00F00E0B9206C22
:1024D00000F01000C0B1206C36F027F90546264800
:1024E00035F0D4FF244835F0D8FF02208DF80000E5
:1024F0008DF8010000200190029003951E49486864
:1025000069462BF08AFED4E71B48007D012816D1CE
:10251000206C36F00AF90546174835F0B7FF02205F
:102520008DF8000001208DF801000020019002903C
:1025300003951149486869462BF06FFEB9E70E48CC
:1025400090F82000012814D1206C36F0EEF80546F2
:10255000094835F0A2FF02208DF8000000208DF818
:1025600001000190029003950349486869462BF0E9
:1025700054FE00BF9DE70000FC0000202DE9F84F4D
:102580000446206805682068C668206847694FF0DF
:102590000009CA4605F00F09B9F1000F0AD105F08C
:1025A000200038B106F0200020B1204601F00CF9DF
:1025B000BDE8F88FB9F1000F7CD007F0010018B921
:1025C00006F49070002875D005F0010030B106F4D3
:1025D000807018B1206C40F00100206405F0040008
:1025E00030B107F0010018B1206C40F00200206407
:1025F00005F0020030B107F0010018B1206C40F086
:102600000400206405F0080048B106F0200010B96D
:1026100007F0010018B1206C40F008002064206C25
:10262000002846D005F0200028B106F0200010B1A7
:10263000204601F0C9F820684069C0F3801A206C78
:1026400000F0080010B9BAF1000F2DD0204601F0BB
:1026500062F82068406900F04000402820D100BFA7
:1026600000BF2168143151E8001F21F040002168AB
:10267000143141E80002002AF3D100BFA06B50B131
:102680007548A16B0865A06BFEF762FA88B1A06B74
:10269000016D88470DE02046FFF702FF09E009E0E1
:1026A0002046FFF7FDFE04E02046FFF7F9FE00207C
:1026B00020647DE7206B012876D105F0100000280A
:1026C00072D006F010000028FAD000BF0020009061
:1026D00020680068009020684068009000BF00BF3C
:1026E0002068406900F0400040285ED1A06B00687F
:1026F00040681FFA80F8B8F1000F54D0A08D404513
:1027000051DDA4F82E80A06BC069B0F5807F43D066
:1027100000BF00BF21680C3151E8001F21F4807018
:1027200021680C3141E80002002AF3D100BF00BF4C
:1027300000BF2168143151E8001F21F00100216819
:10274000143141E80002002AF3D100BF00BF00BFEE
:102750002168143151E8001F21F040002168143134
:1027600041E80002002AF3D100BF202084F83E0097
:102770000020206300BF00BF21680C3151E8001F1A
:1027800021F0100021680C3141E80002002AF3D149
:1027900000BFA06BFEF786F9A08DE28D801A81B292
:1027A0002046FFF7AFFD03E740E0A08DE18D401A22
:1027B0001FFA80F8E08DC0B3B8F1000F35D000BF2C
:1027C00000BF21680C3151E8001F21F4907021688E
:1027D0000C3141E80002002AF3D100BF00BF00BF66
:1027E0002168143151E8001F21F0010021681431E3
:1027F00041E80002002AF3D100BF202084F83E0007
:102800000020206300BF00BF21680C3151E8001F89
:1028100021F0100021680C3141E80002002AF3D1B8
:1028200000BF41462046FFF76DFDC1E605F0800080
:1028300030B106F0800018B1204601F0BFF9B7E6CC
:1028400005F0400030B106F0400018B1204600F01D
:1028500098FFADE600BFABE67D35000810B5044635
:102860000CB9012010BDA06900B100E000BF94F8D0
:102870003D0028B9002084F83C00204600F04AF8CA
:10288000242084F83D002068C06820F400502168AE
:10289000C860204601F014F82068006920F49040D8
:1028A000216808612068406920F02A002168486199
:1028B0002068C06840F400502168C860002020648F
:1028C000202084F83D0084F83E000020CAE7000084
:1028D00010B504460C492068884213D10B480068A3
:1028E00020F01000094908604FF4C0610848FEF765
:1028F0005FFBA06BFEF740F9606BFEF73DF925200A
:10290000FEF7B0FD10BD0000001001404438024049
:102910000000024010B586B00446142101A8FDF75E
:1029200034FD3F492068884278D100BF00200090E4
:102930003C48006840F010003A49086008460068CA
:1029400000F01000009000BF00BF00BF002000900A
:1029500034481438006840F00100324914390860E6
:102960000846006800F00100009000BF00BF4FF46F
:10297000C060019002200290002003900320049088
:102980000720059001A92848FEF7C6FB27482849DB
:1029900008604FF000604860002125488160C160F8
:1029A0004FF4806101610021416181614FF48071C8
:1029B000C1610902016200214162FEF739FA08B1E2
:1029C000FEF76DF800BF1A48A063846300BF174884
:1029D0007830184908604FF0006048604021154881
:1029E00081600021C1604FF480610161002141617B
:1029F0008161C16101624162FEF71AFA08B1FEF716
:102A00004EF800BF0B486063846300BF00220521BD
:102A10002520FEF759FD2520FEF746FD06B010BD26
:102A2000001001404438024000000240406402406F
:102A300058020020B80200202DE9F84F04460E4647
:102A4000174699464FF0000A94F83E0020285FD1BF
:102A500006B117B90120BDE8F88F00BF94F83C001B
:102A6000012801D10220F6E7012084F83C0000BFD4
:102A700000202064222084F83E0000202063FEF71E
:102A80003DFC8246A785E785A068B0F5805F04D14C
:102A9000206910B90025B04602E035464FF0000825
:102AA00000BF002084F83C0000BF29E0534600220C
:102AB00020212046CDF8009001F0B0F808B10320A5
:102AC000C9E745B920684068C0F30800A8F80000CD
:102AD00008F1020811E0A068B0F5805F03D0A0689B
:102AE00028B9206918B920684068287004E0206877
:102AF000406800F07F0028706D1CE08D401EE0856E
:102B0000E08D0028D2D1202084F83E000020A2E7EA
:102B10000220A0E7704770472DE9F84F04460E46A3
:102B2000174699464FF0000A94F83D0020285AD1E4
:102B300006B117B90120BDE8F88F00BF94F83C003A
:102B4000012801D10220F6E7012084F83C0000BFF3
:102B500000202064212084F83D00FEF7CFFB824650
:102B6000A784E784A068B0F5805F04D1206910B91C
:102B70000025B04602E035464FF0000800BF0020B7
:102B800084F83C0000BF1BE0534600228021204611
:102B9000CDF8009001F042F808B10320CBE745B929
:102BA000B8F80000C0F308002168486008F1020886
:102BB00003E02878216848606D1CE08C401EE084AA
:102BC000E08C0028E0D15346002240212046CDF879
:102BD000009001F023F808B10320ACE7202084F82E
:102BE0003D000020A7E70220A5E70000F7B5044656
:102BF000154694F83D00202846D1019800B10DB942
:102C00000120FEBD00BF94F83C00012801D1022044
:102C1000F7E7012084F83C0000BF01982062A584FA
:102C2000E58400202064212084F83D001748616B72
:102C3000C8631748616B08641648616BC86400205C
:102C4000616B086501AE23681A1D31682B46606B05
:102C5000FEF764F96FF040002168086000BF0020B3
:102C600084F83C0000BF00BF00BF2168143151E868
:102C7000001F41F080002168143141E80002002A61
:102C8000F3D100BF0020BCE70220BAE7B13600084C
:102C900009370008913500087FB504460025002655
:102CA00010480068A04207D10E4890F82000012883
:102CB00002D10C48406800B97FBD0A488569C669E1
:102CC00035F0EBFB00208DF800008DF80100019538
:102CD000029603900349486869462BF09EFA00BFAC
:102CE000EAE70000FC000020704700BFFEE700009C
:102CF00008B500BF002000900E48006840F4800036
:102D00000C4908600846006800F48000009000BF8D
:102D100000BF002205213A20FEF7D6FB3A20FEF73D
:102D2000C3FB002205214620FEF7CEFB4620FEF71E
:102D3000BBFB08BD3038024010B532F06FFB0446D3
:102D40000CB1FDF7ACFE05F049F904460CB1FDF7F6
:102D5000A6FE044A0021044828F0EBFE034908605F
:102D600010BD000068DD0308E53300080000002006
:102D700000B587B0142102A8FDF707FB00BF0020B3
:102D800001905B48006840F004005949086008461B
:102D9000006800F00400019000BF00BF00BF0020E9
:102DA00001900846006840F080000860084600680E
:102DB00000F08000019000BF00BF00BF0020019024
:102DC0000846006840F0010008600846006800F00E
:102DD0000100019000BF00BF00BF00200190084625
:102DE000006840F0020008600846006800F0020039
:102DF000019000BF00BF012251033E48FEF778FA60
:102E0000002202213C48FEF773FA012248F25011D9
:102E10003948FEF76DFA01224FF49A613748FEF700
:102E200067FA4FF4005002900120039000200490B4
:102E3000059002A92F48FEF76FF9012002900020AB
:102E400003900120049002A92B48FEF765F948F28F
:102E5000020002900120039000200490059002A936
:102E60002548FEF759F950200290012003900020D8
:102E700004900220059002A91F48FEF74DF9042096
:102E800002904FF4041003900120049002A91B4803
:102E9000FEF742F94FF48060029001200390002079
:102EA0000490059002A91548FEF736F94FF480709A
:102EB00002901120039000200490059002A90E4872
:102EC000FEF72AF9D02002901120039000200490F0
:102ED000059002A90948FEF71FF9002206210820E3
:102EE000FEF7F2FA0820FEF7DFFA07B000BD000097
:102EF0003038024000080240000002400004024056
:102F000010B50F480F4908604FF4827048600021E7
:102F10000C488160C16002210161012141614902C7
:102F200081611021C16100210162416281620A2137
:102F3000C162FEF7CFFE08B1FDF7B1FD10BD000084
:102F400000300140BC01002010B50B480B4908605F
:102F50004FF4E1304860002108488160C1600161A0
:102F60000C21416100218161C161FFF777FC08B14B
:102F7000FDF795FD10BD0000001001401402002077
:102F800000BFFEE700BFFEE72DE9F04104460D4615
:102F9000164600BF0E4F3878532801D000F092FE3D
:102FA00000BFEFF311800746202080F3118800BF97
:102FB00000BF32462946204600F00CF88046F8B2A1
:102FC00080F3118800BF00BF4046BDE8F0810000DB
:102FD000F8B100202DE9F047074688461646C2465C
:102FE00007EB47011B4800EBC109D9F8140020B1D9
:102FF000012811D0022826D11EE0484600F09AFE92
:103000000546B54201D2002405E034463246514619
:10301000484600F0E6FF18E0484600F08BFE054603
:10302000B54201D2284600E03046044622465146C9
:10303000484600F0D6FF08E032465146484600F0C8
:1030400095FF044601E0002400BF00BF2046BDE814
:10305000F087000010B2002070B505460C462046EF
:10306000FDF7B0F90646324621462846FFF78CFFA9
:1030700070BD0FB438B5044606A800906A462046D5
:10308000059900F007F8054600200090284638BC56
:103090005DF814FB2DE9F04F99B082460D461446B9
:1030A00003A814904020159000201690CDF860A041
:1030B000179000BF2E786D1C06B9DDE0252E79D162
:1030C00000274FF0010900BF2E78232E12D02B2E9F
:1030D0000CD02D2E02D0302E10D103E047F0010786
:1030E0006D1C0EE047F002076D1C0AE047F0040774
:1030F0006D1C06E047F008076D1C02E04FF0000968
:1031000000BF00BFB9F1000FDED14FF0000800BFD3
:103110002E78302E01DB392E00DD07E06D1CA6F184
:10312000300008EB880100EB4108F1E700BF002008
:1031300013902E782E2E12D16D1C00BF2E78302EBB
:1031400001DB392E00DD09E06D1CA6F1300013997A
:1031500001EB810100EB41001390EFE700BF2E78F7
:1031600000BF6C2E01D0682E02D16D1C2E7800E0BD
:1031700000E0F6E700BF702E5DD008DC252E6AD097
:10318000582E35D0632E09D0642E69D113E0732EEA
:103190003CD0752E1DD0782E62D128E02168081D04
:1031A0002060D1F8009009F0FF0B594614A800F0F8
:1031B000BBFE56E058E02168081D2060D1F8009061
:1031C000CDE900870A22494614A8139B00F0C0FDF0
:1031D00047E02168081D2060D1F80090CDE9008704
:1031E0000A22494614A8139B00F028FE39E000BFCC
:1031F0002168081D2060D1F80090CDE900871022D9
:10320000494614A8139B00F019FE2AE02168081D06
:103210002060D1F800B000BF9BF800600BF1010BFB
:1032200006B906E0314614A800F07EFE1798002883
:10323000F2DA00BF15E02168081D2060D1F8009087
:10324000002008210B461022CDE90010494614A8A1
:1032500000F0F4FD05E0252114A800F065FE00E073
:1032600000BF00BF6D1C03E0314614A800F05CFEF7
:1032700017980028BFF61EAF00BF179800280ADD78
:10328000169820B103A95046169AFFF77DFEDDE996
:10329000161008441790179819B0BDE8F08F000079
:1032A0007CB504460D461646164800681821B0FB4A
:1032B000F1F01549B0FBF1F04FF47A7148430190F9
:1032C0006068B0F5827F0DD12B4600228021204618
:1032D000009600F01BF898B1606D40F0200060652A
:1032E00003207CBD00BF019800B908E00198401E92
:1032F000019020688068C0F3C0100028F3D100BF9F
:103300000020EEE71000002040420F002DE9F84FAA
:1033100004460D4690461E46DDF82890FDF7EEFF68
:10332000A0EB0900371AFDF7E9FF82462C48006838
:10333000C0F3CB307843009045E0701C002842D0A9
:10334000FDF7DCFFA0EB0A00B84200D2A7BB206863
:10335000406820F0E000216848606068B0F5827F36
:103360000DD1A068B0F5004F03D0A068B0F5806F14
:1033700005D12068006820F0400021680860A06A3C
:10338000B0F5005F0DD100BF2068006820F4005048
:10339000216808602068006840F4005021680860D7
:1033A00000BF012084F8510000BF002084F85000C5
:1033B00000BF0320BDE8F88FFFE7009800B90027A1
:1033C0000098401E0090206880682840A84201D1E3
:1033D000012000E000204045AFD10020EAE70000D6
:1033E0001000002028F0DAFA10B54FF0E020006954
:1033F0003AF0B8F9012801D039F004FA10BD000004
:1034000000B593B0302107A8FCF7BFFF142102A834
:10341000FCF7BBFF00BF002001902448006840F08B
:103420008050224908600846006800F080500190F2
:1034300000BF00BF00BF002001901D48006840F49D
:1034400040401B4908600846006800F44040019075
:1034500000BF00BF0220079001200A9010200B90AF
:1034600002200D9000210E9108210F9164211091EE
:10347000022111910421129107A8FEF7D9F908B190
:10348000FDF70DFB0F200290022003900020049016
:103490004FF48050059000200690032102A8FEF70B
:1034A00065F808B1FDF7FBFA13B000BD40380240E3
:1034B000007000400348006840F470000149086053
:1034C0007047000088ED00E010B50248FEF701FEED
:1034D00010BD00001803002010B50268204B984270
:1034E0000BD0B0F1804F08D01E4B984205D01E4B38
:1034F000984202D01D4B984203D122F070024B68D3
:103500001A43174B984214D0B0F1804F11D0154B8D
:1035100098420ED0144B98420BD0144B984208D0CE
:10352000134B984205D0134B984202D0124B98424D
:1035300003D122F44072CB681A4322F080034C6915
:1035400043EA040202608B68C3620B688362044B27
:10355000984201D10B6903630123436110BD000050
:10356000000001400004004000080040000C004042
:1035700000400140004401400048014070B505464C
:10358000AC6B0020E085E0842046FEF789FF70BD2B
:1035900070B506460025B46B20684069C0F3C015BD
:1035A00094F83D00212805D125B10020E084204673
:1035B00000F0F7F820684069C0F3801594F83E00E9
:1035C000222805D125B10020E085204600F0A3F88F
:1035D000206C40F0100020642046FEF761FF70BDB3
:1035E00070B50546AC6B2868006800F48070002850
:1035F00042D1E08500BF00BF21680C3151E8001FB7
:1036000021F4807021680C3141E80002002AF3D1D6
:1036100000BF00BF00BF2168143151E8001F21F036
:1036200001002168143141E80002002AF3D100BFF3
:1036300000BF00BF2168143151E8001F21F0400095
:103640002168143141E80002002AF3D100BF202094
:1036500084F83E00206B01280ED100BF00BF216816
:103660000C3151E8001F21F0100021680C3141E8B5
:103670000002002AF3D100BF206B012804D1A18DE4
:103680002046FEF73FFE02E02046FFF743FA70BDFA
:1036900070B50546AC6B206B012805D1A08D4108A3
:1036A0002046FEF72FFE02E02046FFF734FA70BDF9
:1036B00070B50546AC6B2868006800F48070F8B9F6
:1036C0000020E08400BF00BF2168143151E8001FD2
:1036D00021F080002168143141E80002002AF3D172
:1036E00000BF00BF00BF21680C3151E8001F41F04E
:1036F000400021680C3141E80002002AF3D102E0C9
:103700002046FFF7C9FA70BD70B50446A56B284680
:10371000FFF7EAFA70BD00BF00BF02680C3252E842
:10372000002F22F4907102680C3242E80013002B43
:10373000F3D100BF00BF00BF0268143252E8002F6F
:1037400022F001010268143242E80013002BF3D189
:1037500000BF016B01290ED100BF00BF02680C320F
:1037600052E8002F22F0100102680C3242E80013E8
:10377000002BF3D100BF202180F83E10002101630F
:10378000704710B504462068C06820F040002168EA
:10379000C860202084F83D002046FFF77DFA002015
:1037A00010BD00BF00BF02680C3252E8002F22F0AB
:1037B000C00102680C3242E80013002BF3D100BFB5
:1037C000202180F83D107047F8B5044694F83E007B
:1037D000222873D1A068B0F5805F0CD1206950B960
:1037E0000025A66A20684068C0F308003080A06AFF
:1037F000801CA06215E0A56A0026A068B0F5805F75
:1038000003D0A06828B9206918B9206840682870DA
:1038100004E02068406800F07F002870A06A401C27
:10382000A062E08D401E80B2E085002844D120686F
:10383000C06820F020002168C8602068C06820F4BB
:1038400080702168C8602068406920F0010021680C
:103850004861202084F83E00206B012826D10020FA
:10386000206300BF00BF21680C3151E8001F21F028
:10387000100021680C3141E80002002AF3D100BF9A
:103880002068006800F0100010280AD100BF002056
:10389000009020680068009020684068009000BF99
:1038A00000BFA18D2046FEF72DFD02E02046FFF768
:1038B00031F90020F8BD01E00020FBE70220F9E724
:1038C0002DE9F84F04462068006920F44050E16873
:1038D0000843216808612169A068084361690843B9
:1038E000E169084300902068C06849F20C61884390
:1038F000009908432168C8602068406920F440703E
:10390000A16908432168486176492068884203D04C
:1039100075492068884203D1FDF722FF814602E005
:10392000FDF70EFF8146E069B0F5004F6CD1022033
:103930006168A0FB015003461920A9FB00700146F5
:103940002A463846FCF7A6FC6421B0FBF1F04FEAAA
:10395000001A02206168A0FB01510B461920A9FB47
:1039600000712A463846FCF795FC834602206168C0
:10397000A0FB015003461920A9FB00712A463846D6
:10398000FCF788FC6421B0FBF1F000EBC00101EB17
:103990000010ABEB8000322101EBC0006421B0FBD2
:1039A000F1F000F0F8000AEB400A02206168A0FB89
:1039B000015003461920A9FB007001462A463846EB
:1039C000FCF768FC834602206168A0FB01500346B7
:1039D0001920A9FB00712A463846FCF75BFC6421DC
:1039E000B0FBF1F000EBC00101EB0010ABEB80008D
:1039F000322101EBC0006421B0FBF1F000F00700C0
:103A00005044216888606AE004206168A0FB01508E
:103A100003461920A9FB007001462A463846FCF7E8
:103A200039FC824604206168A0FB0150034619203E
:103A3000A9FB007001462A463846FCF72BFC64219E
:103A4000B0FBF1F000EBC00101EB0010AAEB80002D
:103A5000322101EB00106421B0FBF1F000F0F00A1C
:103A600004206168A0FB017003461920A9FB0051E6
:103A70003A462846FCF70EFC6421B0FBF1F00AEB55
:103A8000001A04206168A0FB01510B461920A9FB14
:103A900000712A463846FCF7FDFB83460420616826
:103AA000A0FB015003461920A9FB007001462A46DD
:103AB0003846FCF7EFFB6421B0FBF1F000EBC001EE
:103AC00001EB0010ABEB8000322101EB0010642110
:103AD000B0FBF1F000F00F00504421688860BDE8B1
:103AE000F88F0000001001400014014077B581B04C
:103AF000044615460298A062A58500202064222075
:103B000084F83E002A48A16BC8632A48A16B086468
:103B10002948A16BC8640020A16B086502AE326819
:103B20002368191D2B46A06BFDF7F8F900BF002094
:103B3000009020680068009020684068009000BFF6
:103B400000BF00BF002084F83C0000BF206970B1B6
:103B500000BF00BF21680C3151E8001F41F48070A4
:103B600021680C3141E80002002AF3D100BF00BFF8
:103B700000BF2168143151E8001F41F001002168A5
:103B8000143141E80002002AF3D100BF00BF00BF9A
:103B90002168143151E8001F41F0400021681431C0
:103BA00041E80002002AF3D100BF002004B070BD3C
:103BB000E13500089136000891350008014691F87A
:103BC0003D00212828D18868B0F5805F0BD10869B5
:103BD00048B90A6A1088C0F308000B685860086A80
:103BE000801C086205E00B6A581C086218780B6894
:103BF0005860C88C401E80B2C88458B90868C06834
:103C000020F080000B68D8600868C06840F0400071
:103C10000B68D860002070470220FCE72DE9F041D6
:103C200004460D4617469846069E34E0701C88B33D
:103C30002EB1FDF763FBA0EB0800B0422BD900BF0B
:103C400000BF21680C3151E8001F21F4D0702168B9
:103C50000C3141E80002002AF3D100BF00BF00BFD1
:103C60002168143151E8001F21F00100216814314E
:103C700041E80002002AF3D100BF202084F83D0073
:103C800084F83E0000BF002084F83C0000BF032001
:103C9000BDE8F081FFE7206800682840A84201D114
:103CA000012000E00020B842C0D00020F0E7000072
:103CB00010B50248FEF762FC10BD0000140200209F
:103CC00000BFFEE770B5144CA8212046FCF75DFB51
:103CD00003202061606111A0A0611349E1614FF4EC
:103CE000806121620021A1626162E1620BA0206615
:103CF0000E4961661021A16600212167E1666167B6
:103D0000002505E0C5F10F000949085C60556D1CF0
:103D1000102DF7D370BD0000F8B100205465726D0E
:103D2000696E616C00000000A0B20020A0B6002007
:103D300098E4030810B501460A69CB689A4204D892
:103D40008C68641EE41AA01801E0D41A601E10BD2D
:103D50002DE9FC5F06460F4692469846DDE90C4584
:103D6000002F01DA784200E0384683464FF001091F
:103D700003E09BFBFAFB09F10109D345F9DAC845D9
:103D800000D9C14634B1002F03DB05F0040004283C
:103D900000D1641E05F0020010B1B8F1000F11D07F
:103DA00005F0010070B96CB108E0641E20213046B6
:103DB00000F0BAF8F068002800DA02E00CB1A14582
:103DC000F3D300BFF068002836DB002F05DA7F420E
:103DD0002D21304600F0A8F807E005F00400042883
:103DE00003D12B21304600F09FF8F068002823DB38
:103DF00005F00200022814D105F0010088B9B8F1DD
:103E0000000F0ED16CB108E0641E3021304600F086
:103E10008BF8F068002800DA02E00CB1A145F3D37A
:103E200000BFF068002807DB43465246394630465B
:103E3000CDE9004500F002F8BDE8FC9F2DE9FC5FEC
:103E40008046894615461E460C9CCDF804900127F5
:103E5000BB4605E00198B0FBF5F001900BF1010BBA
:103E60000198A842F6D25E4500D9B3460D9800F0FD
:103E70000100D0B9CCB10D9800F00200022803D1A6
:103E800016B93020009001E02020009009E0641E67
:103E90004046009900F048F8D8F80C00002800DAF5
:103EA00002E00CB1A345F2D300BFD8F80C00002803
:103EB00035DB09E0012E01D9761E04E0B9FBF7FAE3
:103EC000AA4500D201E06F43F4E700BF00BFB9FB91
:103ED000F7FA0AFB1799134810F80A10404600F049
:103EE00023F8D8F80C00002800DA03E0B7FBF5F758
:103EF000002FECD100BF0D9800F0010078B174B133
:103F000009E0641E2021404600F00EF8D8F80C00AD
:103F1000002800DA02E00CB1A345F2D300BFBDE8EF
:103F2000FC9F0000A9E4030870B504460E46A5688E
:103F3000681C6168814206D320684655681CA060F1
:103F4000E068401CE060D4E9011088420DD1A2680D
:103F500021682069FFF718F8A168884203D04FF064
:103F6000FF30E06001E00020A06070BD2DE9F05F4F
:103F70000446894617464FF0000AE56800BFD4F8AA
:103F80001080A84503D9A8EB0500461E04E0A5EB68
:103F90000800401CA1680E1AA068401BB04201D95D
:103FA000304601E0A068401B0646BE4201D23046C2
:103FB00000E038460646606800EB050B324649468D
:103FC0005846FCF7C9F9B244B144BF1B3544A06858
:103FD000A84200D10025E560002FD0D15046BDE8B1
:103FE000F09F2DE9F047044689461546E668A0682B
:103FF000871BAF420AD9606800EB060A2A46494689
:104000005046FCF7A9F97019E06014E0B846606802
:1040100000EB060A424649465046FCF79DF9A5EBDF
:104020000708D4F804A009EB070142465046FCF704
:1040300093F9C4F80C80BDE8F08700000FB47CB59C
:104040000C0009AD01D0611E00E00021CDE90001A6
:10405000064B6A462946089800F044F9002C02D025
:10406000009A002111707CBC5DF814FBEB4900083C
:104070007CB50C001D461646014601D0601E00E0CE
:104080000020CDE90010064B6A462946304600F074
:1040900029F9002C02D0009A002111707CBD00008B
:1040A000EB49000802480068C0F302207047000096
:1040B0000CED00E010B5002804DB0A07130E054ADA
:1040C000135406E00A07140E034A00F00F031B1FE7
:1040D000D45410BD00E400E018ED00E0EFF30580DB
:1040E000704702E008C8121F08C1002AFAD17047C1
:1040F0007047002001E001C1121F002AFBD1704768
:104100002DE9F04180460F4614461D4625B921464B
:10411000404615F00FFD054605FB07F6142C03D1AC
:10412000680800FB076617E0072C15DB0A2C13DC78
:10413000072C01D102200DE0082C01D1042009E058
:10414000092C01D1102005E00A2C02D14FF4807017
:1041500000E0002006EB80063046BDE8F08100005C
:104160002DE9FF5F82B00021DDE90430020DDDF8AA
:1041700040B0034318D044F61050A2F2FF3242433D
:104180001514119801281FD0A5EB0B00401C5FEA05
:10419000000A4FF000064E4FDFF83891B046504607
:1041A00015D5CAF1000413E0119801244AA301288F
:1041B00001D16FEA0B010298119AC0E90031C0E900
:1041C000024206B0BDE8F09FCBF10000DFE70446F5
:1041D0000021404A491842EB0450CDE9001012E09A
:1041E000E00707D032463B4640464946FCF7FCF91B
:1041F0008046894632463B4610461946FCF7F4F99C
:1042000006460F466410002CEAD1DDE90401DDE921
:104210000023BAF1000F06DAFCF7E6F942464B46F6
:10422000FCF7E2F905E0FCF751FA42464B46FCF791
:104230004DFA04460E460022284BFCF7CFFA03D86D
:104240004FF0FF30014607E00022254B2046314663
:10425000FCF723F9FCF7A9FA102409E0002C0ADB8B
:104260000A220023FCF716F8039B30321A55641E0D
:1042700050EA0102F2D1641C039AC4F11103144400
:10428000119A012A03D0012208430DD10AE0084304
:1042900004D000204FF0110B119072E7A3EB0B0537
:1042A0006D1E0DE05B4504DD4FF0000205F10105D8
:1042B00004E003DA4FF00002A5F10105002AECD07A
:1042C00002981199C0E90231C0E9004579E7000080
:1042D000000014400000F03F300000000000F043F8
:1042E0000000E03F2DE9FF4F95B09A46884606460C
:1042F0000025EEE1252877D100242746F94A01213F
:10430000039400E0044316F8013F203B01FA03F058
:104310001042F7D130782A2811D06FF02F0330786F
:10432000A0F13002092A16D8039A44F0020402EBE5
:10433000820203EB42021044761C0390EFE758F828
:10434000042B0392002A03DA504244F400540390F1
:1043500044F00204761C30782E2816D116F8010F8E
:1043600044F004042A280DD06FF02F023078A0F119
:104370003003092B09D807EB870302EB4303C71867
:10438000761CF3E758F8047B761C30786C280FD045
:1043900006DC4C2817D068280DD06A2814D104E018
:1043A000742810D07A280FD10DE044F400140AE0EC
:1043B00044F4801401E044F440147278824202D143
:1043C00004F58014761C761C307866280BD013DC3C
:1043D000582877D009DC002875D04528F6D0462823
:1043E000F4D047281AD193E118E0632835D0642827
:1043F00079D0652812D18BE1702873D008DC67284A
:10440000F1D069286FD06E280DD06F2806D1ACE0AE
:1044100073282CD0752874D0782853D05246179919
:1044200090476D1C54E1C4F30250022809D00328C0
:104430000DD0D8F8001004280DD00D6008F1040844
:1044400046E1D8F80010EA17C1E90052F6E7D8F8BB
:1044500000100D80F2E70D70F0E718F8041B8DF8DE
:10446000001000208DF80100EB46012003E058F811
:1044700004BB4FF0FF3061074FF0000102D40DE0A4
:1044800009F101018946B9420FDA8145F8DB1BF8D1
:1044900009100029F4D108E009F10101894681429F
:1044A000FADB1BF809100029F6D103985346A0EB5C
:1044B000090721463846179A00F080FA284400EB95
:1044C000090507E044E008E10DE01BF8010B524646
:1044D00017999047B9F10109F7D25346214638465A
:1044E000179AF2E039E00A21C4F302524FF0000BB0
:1044F0000091022A06D058F8040BC117032A09D0EC
:104500000AE023E008F1070020F00702F2E80201C8
:10451000904605E000B2C117042A01D140B2C1178C
:10452000002906DA0A460021404261EB02012D22F1
:1045300002E0220504D52B228DF80420012203E09D
:10454000E20701D02022F7E7914657E00A2100E078
:1045500010214FF0000B00910BE010214FF0000BE9
:1045600044F004040827009103E008204FF0000BFA
:104570000090C4F30252022A05D058F8040B00211F
:10458000032A08D008E008F1070020F00702F2E84B
:104590000201904603E080B2042A00D1C0B24FF07D
:1045A000000922072AD53278702A07D0DDF800C02A
:1045B0008CF0100C5CEA0B0C05D00EE040228DF85C
:1045C0000420012208E050EA010306D030238DF8D0
:1045D00004308DF8052002229146009B83F00803E9
:1045E00053EA0B030AD150EA010201D1620705D553
:1045F00030228DF804204FF001097F1E3278582AAE
:1046000004D039A20C920CAA02920BE03BA2F9E76B
:104610005B46009AFBF73EFE0C9B9B5C029A521E87
:104620000292137050EA0102F2D1029804A9081A0A
:1046300000F1200B600702D524F4803400E001274C
:104640005F4502DDA7EB0B0000E0002000EB0B0153
:10465000009003984944401A0390E00306D453465F
:104660002146179A039800F0A9F90544002706E0AF
:1046700001A85246C05D179990476D1C7F1C4F459D
:10468000F6DBE0030CD553462146179A039800F059
:1046900095F9054404E030205246179990476D1C67
:1046A0000099481E00900029F5DC08E00298029964
:1046B00052460078491C0291179990476D1CBBF136
:1046C0000001ABF1010BF1DC5BE100F065F90544A1
:1046D000761C307800287FF40DAE19B02846BDE86E
:1046E000F08F00000928010030313233343536377D
:1046F000383961626364656600000000303132332E
:1047000034353637383941424344454600000000CD
:10471000600700D4062708F1070020F00700F0E842
:104720000223804603F0004C5FEA0C0001D097A002
:1047300009E0200501D596A005E0E00701D095A08D
:1047400001E0AFF24C001390307823F0004365286D
:104750000CD006DC452809D046281DD047287FD13B
:104760003BE0662818D067287AD136E00021112F67
:1047700001DB112000E0781CCDE9000104A90CA8A0
:10478000FFF7EEFCDDE90D010C9A4FF0000B07F18D
:104790000109109200914EE04FF000400097CDE9E2
:1047A000011004A90CA8FFF7DBFCDDE90D020C9B4E
:1047B0000F994FF0000B91461093009211B9791C9C
:1047C00000EB0109B7EB090003D4C0F1FF3B07F18F
:1047D0000109A9EB0700019042E0012F00DA01274F
:1047E0000021112F01DD112000E03846CDE9000144
:1047F00004A90CA8FFF7B4FCDDE90D010C9A0091A7
:104800004FF0000BB946109221070FD4009A4A4589
:1048100003DA914601E0A9F10109B9F1010F05DDC3
:10482000109AA9F10101515C3029F4D0B84202DAA2
:1048300010F1040F03DA0121CDE9011010E0002886
:1048400003DC8344A9EB000102E0411C494500DD83
:104850008946A0EB0B00401C01904FF000400290F5
:10486000200705D40198484502DB4FF0FF30019046
:1048700000208DF84B0002980DF14B07B0F1004F6E
:1048800025D002200C902B200D90029800280CDAE5
:10489000404202902D200D9007E00A210298FBF77C
:1048A000C7FD3031029007F8011D0C99481E0C908D
:1048B0000029F2DC02980028EFD1791E0D980870CB
:1048C000307800F0200040F0450007F8020D11A8F4
:1048D000C01BC01D02901398007800B1012000EBAE
:1048E0000901019801EBE071029801440398401A14
:1048F000401E0390E00306D453462146179A0398BE
:1049000000F05CF805441398007818B152461799E6
:1049100090476D1CE00323D553462146179A039810
:1049200000F04CF805441BE0BBF1000F07DB0098DA
:10493000584504DD1098179910F80B0001E01799FD
:1049400030205246904701980BF1010B401E05F1B3
:104950000105019004D12E205246179990476D1CF5
:10496000B9F10001A9F10109DEDC05E017F8010B3E
:104970005246179990476D1C0299481E02900029D3
:10498000F4DC53462146179A03989EE62D0000005A
:104990002B000000200000002DE9F0410446002516
:1049A0001E461746880404D405E039462020B04747
:1049B0006D1C641EF9D52846BDE8F0812DE9F04153
:1049C000044600251E469046C80301D5302700E066
:1049D0002027880404D505E041463846B0476D1CC1
:1049E000641EF9D52846BDE8F0814A68002A06D041
:1049F0000A68531C0B6010704868401E486070477E
:104A00002DE9F04704460D469046264600BF1EB9E4
:104A100000BF00BF00BFFEE700BF00BF1DB900BF61
:104A200000BF00BFFEE700BF06B115B90020BDE81A
:104A3000F08742462946304601F040FB07460FB951
:104A40000020F4E76168386912F0D6FE81462846F6
:104A5000F16B8847E1680844E0604846E7E72DE9E4
:104A6000FF5F07460E461546984632462946684679
:104A700011F0D4FF20B301986968411A0E9800FB29
:104A8000017900982968401A8144009840443168AF
:104A9000A0EB010A684611F0AEFF834600240CE04B
:104AA0001AF8041019F804208818FF2801D9FF21EA
:104AB00000E001460AF80410641C5C45F0D300BF16
:104AC000BDE8FF9F2DE9F04104460E46002774B172
:104AD0003146204601F0C9FA0546B5F5004F05D22A
:104AE0000C2D01D9284600E00C20074600BF3846AF
:104AF000BDE8F0812DE9F04F87B00646D6F804B046
:104B0000B068069096F82180D6F80090F06805907D
:104B1000D6F818A0F069049037697069039001A86D
:104B200013F0F8FC96F8220000287BD10FBBB8F1F7
:104B3000FD0F1EDB002518E0002409E009EB44010D
:104B40000AEB4400008801AA009012F0D3FF641C15
:104B50005C45F3DB484605990AF06EF881465046FD
:104B600004990AF069F882466D1C06988542E3DBD9
:104B7000C2E04FBBB8F1FD0F26DA002520E000248B
:104B800011E00AEB4400008800909DF8010000FB52
:104B900008F000128DF8010009EB440101AA009809
:104BA00012F0A8FF641C5C45EBDB484605990AF04F
:104BB00043F88146504604990AF03EF882466D1C3F
:104BC00006988542DBDB97E06FB3B8F1FD0F2BDB76
:104BD000002523E0002412E00AEB44000088009046
:104BE0009DF80100395D10FB01F000128DF8010005
:104BF00009EB440101AA009812F07CFF641C5C459B
:104C0000EADB484605990AF017F8814650460499B0
:104C10000AF012F88246039807446D1C06988542F4
:104C2000D8DB69E031E0FFE7002F65D0B8F1FD0F78
:104C300062DA002525E0002414E00AEB4400008835
:104C400000909DF80100395D10FB01F000FB08F0B9
:104C500000148DF8010009EB440101AA009812F03C
:104C600049FF641C5C45E8DB4846059909F0E4FF10
:104C700081465046049909F0DFFF824603980744B5
:104C80006D1C06988542D6DB36E0002531E0002415
:104C90001FE00AEB4400008800903FB99DF8010036
:104CA00000FB08F000128DF8010009E09DF80100FA
:104CB000395D10FB01F000FB08F000148DF80100D5
:104CC00096F8222009EB440001AB009906F03EFE65
:104CD000641C5C45DDDB0FB1039807444846059929
:104CE00009F0AAFF81465046049909F0A5FF8246C3
:104CF0006D1C06988542CADB07B0BDE8F08F2DE930
:104D0000F04F8BB0074678680A90B868099097F81A
:104D100021A0D7F800B0F8680890BE69F86907903C
:104D2000D7F810807869069097F8220000287ED185
:104D3000B8F1000F26D1BAF1FD0F23DB00251DE0ED
:104D40004FF0000900240BE006EB44035A780BEB0C
:104D5000890116F8140013F0C6F909F10109641C61
:104D60000A988442F0DB5846089909F06BFF8346A5
:104D70003046079909F066FF06466D1C0998854282
:104D8000DEDBE1E0B8F1000F29D1BAF1FD0F26DA40
:104D9000002520E04FF0000900240EE006EB44035C
:104DA0005B7803FB0AF31A120BEB890116F8140067
:104DB00013F099F909F10109641C0A988442EDDBAA
:104DC0005846089909F03EFF83463046079909F096
:104DD00039FF06466D1C09988542DBDBB4E0B8F16B
:104DE000000F2FD0BAF1FD0F2CDB002526E04FF08D
:104DF0000009002410E006EB44035B7818F804C0B7
:104E000013FB0CF31A120BEB890116F8140013F0C4
:104E10006AF909F10109641C0A988442EBDB5846DF
:104E2000089909F00FFF83463046079900E03CE0FF
:104E300009F008FF0646069880446D1C09988542D3
:104E4000D5DB81E0B8F1000F7ED0BAF1FD0F7BDA3F
:104E5000002526E04FF00009002412E006EB440391
:104E60005B7818F804C013FB0CF303FB0AF31A1465
:104E70000BEB890116F8140013F035F909F101095B
:104E8000641C0A988442E9DB5846089909F0DAFE66
:104E900083463046079909F0D5FE064606988044B9
:104EA0006D1C09988542D5DB4EE001A813F057FB35
:104EB000002545E04FF0000900242EE016F814000C
:104EC0008DF8160016F814008DF8150016F8140069
:104ED0008DF81400B8F1000F08D106EB44004078BB
:104EE00000FB0AF000128DF817000BE006EB4400FF
:104EF000407818F8091010FB01F000FB0AF00014CC
:104F00008DF8170097F822200BEB890001AB05996B
:104F100006F076FD09F10109641C0A988442CDDB94
:104F2000B8F1000F01D0069880445846089909F05E
:104F300089FE83463046079909F084FE06466D1CBB
:104F400009988542B6DB00BF0BB0BDE8F08F2DE9B4
:104F5000F04F87B08046D8F804000690D8F80800D3
:104F6000059098F821B0D8F800000490D8F80C000B
:104F70000390D8F81870D8F81C000290D8F810A048
:104F8000D8F814000190D8F82400C11700EB517133
:104F9000C910A0EBC10998F8220000287DD1BAF110
:104FA000000F3BD1BBF1FD0F38DB002632E00025BE
:104FB000002421E005EB090104980BF026FAC0EB70
:104FC0000020C0B2009007EB44014A7817F81400A3
:104FD000694613F0ADF89DF800007F2805DD05EB6C
:104FE0000901049830F01BFF04E005EB0901049867
:104FF00008F018F96D1C641C06988442DADBDDE9C0
:10500000031009F022FE04903846029909F01DFEB3
:105010000746761C05988642C9DB1BE1BAF1000FF2
:1050200040D1BBF1FD0F3DDA002635E0002500241C
:1050300024E005EB090104980BF0E7F9C0EB002030
:10504000C0B2009007EB4401497801FB0BF10A1252
:1050500017F81400694613F06BF89DF800007F28DC
:1050600005DD05EB0901049830F0D9FE04E005EBFD
:105070000901049808F0D6F86D1C641C0698844257
:10508000D7DBDDE9031009F0E0FD04903846029912
:1050900009F0DBFD0746761C00E091E005988642AA
:1050A000C4DBD7E0BAF1000F42D0BBF1FD0F3FDB0C
:1050B000002639E00025002426E005EB09010498CC
:1050C0000BF0A3F9C0EB0020C0B2009007EB440145
:1050D00049781AF8043011FB03F10A1217F814008A
:1050E000694613F025F89DF800007F2805DD05EBE3
:1050F0000901049830F093FE04E005EB09010498DF
:1051000008F090F86D1C641C06988442D5DBDDE93C
:10511000031009F09AFD04903846029909F095FDB4
:10512000074601988244761C05988642C2DB91E0CE
:10513000BAF1000FB5D0BBF1FD0FB2DA00263BE0AB
:105140000025002428E005EB090104980BF05DF927
:10515000C0EB0020C0B2009007EB440149781AF878
:10516000043011FB03F101FB0BF10A1417F81400D2
:10517000694612F0DDFF9DF800007F2805DD05EB94
:105180000901049830F04BFE04E005EB0901049896
:1051900008F048F86D1C641C06988442D3DBDDE9F6
:1051A000031009F052FD04903846029909F04DFDB4
:1051B000074601988244761C05988642C0DB49E088
:1051C000002643E0002500242DE017F814008DF898
:1051D000020017F814008DF8010017F814008DF87C
:1051E0000000BAF1000F08D107EB4400407800FB43
:1051F0000BF000128DF803000BE007EB4400407841
:105200001AF8041010FB01F000FB0BF000148DF8ED
:10521000030098F8223005EB0901009A049806F083
:10522000BEFC6D1C641C06988442CEDBBAF1000FF4
:1052300001D001988244DDE9031009F006FD0490D5
:105240003846029909F001FD0746761C059886420A
:10525000B8DB00BF07B0BDE8F08F2DE9F04F87B095
:10526000064670680690B068059096F821A0D6F8BA
:1052700000B0F0680490B769F0690390D6F8108028
:105280007069029096F8220000287ED1B8F1000FD4
:1052900026D1BAF1FD0F23DB00251DE04FF00009F8
:1052A00000240BE007EB44035A780BEB090117F8D5
:1052B000140012F050FF09F10109641C06988442A1
:1052C000F0DB5846049909F0C3FC8346384603993D
:1052D00009F0BEFC07466D1C05988542DEDBD2E076
:1052E000B8F1000F29D1BAF1FD0F26DA002520E030
:1052F0004FF0000900240EE007EB44035B7803FB4A
:105300000AF31A120BEB090117F8140012F023FF2D
:1053100009F10109641C06988442EDDB58460499A2
:1053200009F096FC83463846039909F091FC07463C
:105330006D1C05988542DBDBA5E0B8F1000F2FD08E
:10534000BAF1FD0F2CDB002526E04FF00009002408
:1053500010E007EB44035B7818F804C013FB0CF370
:105360001A120BEB090117F8140012F0F4FE09F100
:105370000109641C06988442EBDB5846049909F045
:1053800067FC83463846039900E03CE009F060FC86
:105390000746029880446D1C05988542D5DB72E073
:1053A000B8F1000F6FD0BAF1FD0F6CDA002526E0DE
:1053B0004FF00009002412E007EB44035B7818F873
:1053C00004C013FB0CF303FB0AF31A140BEB0901E3
:1053D00017F8140012F0BFFE09F10109641C0698C9
:1053E0008442E9DB5846049909F032FC834638468A
:1053F000039909F02DFC0746029880446D1C05981E
:105400008542D5DB3FE0002539E04FF0000900245C
:1054100022E017F814008DF8060017F814008DF834
:10542000050017F814008DF80400B8F1000F02D140
:105430008DF807A006E018F8090000FB0AF000123A
:105440008DF8070096F822200BEB0900019906F071
:1054500008FC09F10109641C06988442D9DBB8F103
:10546000000F01D0029880445846049909F0F0FBDF
:1054700083463846039909F0EBFB07466D1C0598F7
:105480008542C2DB00BF07B0BDE8F08F2DE9F14FC8
:105490008AB00A98406809900A98806808900A982B
:1054A00090F8210007900A9806680A98C06806904C
:1054B0000A98D0F818A00A98C06905900A98D0F800
:1054C00010B00A98406904900A9890F822000028C9
:1054D00071D1BBF1000F2FD10798FD282CDB4FF0C5
:1054E000000925E00024002713E036F8140013F02B
:1054F000B8F880460AEB47014A781AF81700414687
:1055000012F06AFD054613F0ACF826F81400641C8E
:105510007F1C09988442E8DB3046069909F09BFB22
:1055200006465046059909F096FB824609F10109A5
:1055300008988145D6DB1DE2BBF1000F32D10798F8
:10554000FD282FDA4FF0000928E00024002716E09C
:1055500036F8140013F085F880460AEB47014978C5
:10556000079B59430A121AF81700414612F034FDFE
:10557000054613F076F826F81400641C7F1C099881
:105580008442E5DB3046069909F065FB0646504645
:10559000059909F060FB824609F1010908988145E7
:1055A000D3DBE7E1BBF1000F37D00798FD2834DBF0
:1055B0004FF000092DE06CE00024002718E036F8D9
:1055C000140013F04EF880460AEB470149781BF8A7
:1055D000043011FB03F10A121AF81700414612F0C9
:1055E000FBFC054613F03DF826F81400641C7F1CF4
:1055F00009988442E3DB3046069909F02CFB064605
:105600005046059909F027FB82460498834409F126
:10561000010908988145CFDBACE1BBF1000F8AD0CE
:105620000798FD2887DA4FF000092EE000240027B4
:105630001AE036F8140013F014F880460AEB47011C
:1056400049781BF8043011FB03F1079B59430A14F6
:105650001AF81700414612F0BFFC054613F001F896
:1056600026F81400641C7F1C09988442E1DB304654
:10567000069909F0F0FA06465046059909F0EBFA4A
:1056800082460498834409F1010908988145CDDBDD
:1056900070E100200390814667E135463046099964
:1056A00019F087FD002400274AE11AF817004FEA95
:1056B000E0081AF81700801002900A9890F822006B
:1056C000012806D002283DD0032878D004286FD1C5
:1056D00098E035F8140008EBD0201F2804DA35F8DC
:1056E000140008EBD02000E01F204FF6FF7101EA04
:1056F000C020039035F81400C0F345110298084407
:105700003F2806DA35F81400C0F345110298084422
:1057100000E03F20039901EB401080B2039015F8A0
:10572000140000F01F0040441F2805DA15F814008B
:1057300000F01F00404400E01F200399084480B29D
:105740000390ACE035F81400C8EBD020002804DD4D
:1057500035F81400C8EBD02000E000204FF6FF71B0
:1057600001EAC020039035F81400C0F345110298F7
:10577000081A002806DD35F81400C0F34511029818
:10578000081A00E00020039901EB401080B203905A
:1057900015F8140000F01F00A0EB0800002808DD39
:1057A00015F8140000F01F00A0EB080002E006E06E
:1057B00070E000200399084480B203906FE035F850
:1057C0001400C00A00FB08F040114FF6FF7101EA17
:1057D000C020039035F81400C0F3451002994843E7
:1057E0008111039800EB411080B2039015F814006A
:1057F00000F01F0000FB08F0039901EB601080B27D
:1058000003904CE035F81400C8EBD020002804DDEC
:1058100035F81400C8EBD02003E035F81400A8EBED
:10582000D0204FF6FF7101EAC020039035F8140034
:10583000C0F345110298081A002806DD35F8140057
:10584000C0F345110298081A05E035F81400C0F3BA
:1058500045110298401A039901EB401080B2039061
:1058600015F8140000F01F00A0EB0800002806DD6A
:1058700015F8140000F01F00A0EB080005E015F873
:10588000140000F01F00A8EB00000399084480B248
:10589000039004E000BF00BF0BB0BDE8F08F00BF75
:1058A000BBF1000F10D10798FD280DDB0AEB470074
:1058B000427836F81410039812F0F6F8019012F0BE
:1058C000D0FE26F8140039E0BBF1000F13D1079881
:1058D000FD2810DA0AEB47004078079B5843021274
:1058E00036F81410039812F0DFF8019012F0B9FEA8
:1058F00026F8140022E00798FD280CDB1BF8042092
:1059000036F81410039812F0CFF8019012F0A9FEA7
:1059100026F8140012E01BF80400079B58430AEB1A
:1059200047035B785843021436F81410039812F0BA
:10593000BBF8019012F095FE26F81400641C3F1D80
:1059400009988442FFF6B1AE3046069909F083F912
:1059500006465046059909F07EF98246BBF1000FD4
:1059600001D00498834409F1010908988145FFF6A4
:1059700094AE00BF00BF8FE72DE9F14F88B00898C3
:1059800040680790089880680690089890F8210071
:105990000590089806680898C06804900898D0F8A0
:1059A00018A00898C06903900898D0F810B008981B
:1059B00040690290089890F8220000287ED1BBF13F
:1059C000000F28D10598FD2825DB4FF000091EE0C7
:1059D000002400270CE00AEB47035A7836F814102D
:1059E0001AF8170012F02AFB26F81400641C7F1C1A
:1059F00007988442EFDB3046049909F02FF90646F8
:105A00005046039909F02AF9824609F101090698DE
:105A10008145DDDBF9E1BBF1000F2BD10598FD28B5
:105A200028DA4FF0000921E0002400270FE00AEBFC
:105A300047035B78059D6B431A1236F814101AF869
:105A4000170012F0FBFA26F81400641C7F1C07985C
:105A50008442ECDB3046049909F000F906465046D2
:105A6000039909F0FBF8824609F10109069881457E
:105A7000DADBCAE1BBF1000F31D00598FD282EDB3F
:105A80004FF0000927E00024002711E00AEB47034C
:105A90005B781BF8045013FB05F31A1236F8141048
:105AA0001AF8170012F0CAFA26F81400641C7F1CBA
:105AB00007988442EADB3046049900E044E009F0AC
:105AC000CDF806465046039909F0C8F88246029878
:105AD000834409F1010906988145D4DB95E1BBF1C6
